:020000040800F2
:10000000D8330020990100087B33000883260008BC
:1000100079330008B30700080D390008000000001C
:1000200000000000000000000000000001010008C6
:10003000030800080000000045010008853300089F
:10004000B3010008B3010008B3010008B3010008C0
:10005000B3010008B3010008B3010008B3010008B0
:10006000B3010008B3010008B3010008B507000898
:10007000B3010008B3010008C1070008CD0700085C
:10008000B3010008B301000851070008B3010008DC
:10009000B3010008B3010008B3010008B301000870
:1000A000B3010008B3010008B3010008B301000860
:1000B0002D340008B3010008B301000891260008A0
:1000C00085260008A92600089D260008B30100081F
:1000D000B30100086938000881380008B30100083E
:1000E00005080008B3010008B3010008DFF80CD0D0
:1000F00000F09EFA0048004781430008D8330020F2
:10010000224B19680868B0E8F00F80F30988BFF344
:100110006F8F4FF0000080F311884EF00D0E704786
:100120000000000006480068006880F3088862B696
:1001300061B6BFF34F8FBFF36F8F00DF00BF00BF0B
:1001400008ED00E0EFF30980BFF36F8F0F4B1A68E3
:1001500020E9F00F106008B54FF0500080F31188CF
:10016000BFF34F8FBFF36F8F04F046FE4FF00000D8
:1001700080F31188BDE8084019680868B0E8F00FFE
:1001800080F30988BFF36F8F704700BF2C000020F9
:10019000EFF3058070470000064880470648004797
:1001A000FEE7FEE7FEE7FEE7FEE7FEE7FEE7FEE727
:1001B000FEE7FEE729340008ED000008202A04DBF2
:1001C000203A21FA02F00021704721FA02F3D040D0
:1001D000C2F12002914008431946704740EA0103EA
:1001E0009B0703D009E008C9121F08C0042AFAD2ED
:1001F00003E011F8013B00F8013B521EF9D27047B1
:10020000D2B201E000F8012B491EFBD27047002258
:10021000F6E710B513460A4604461946FFF7F0FF05
:10022000204610BD421C10F8011B0029FBD1801A8A
:10023000704730B50B46014600202022012409E01A
:1002400021FA02F59D4205D303FA02F5491B04FA8F
:1002500002F52844151EA2F10102F1DC30BD2DE9A2
:10026000F05F0546002092469B468846064681463A
:1002700040241BE02846414647462246FFF79EFFA2
:1002800053465A46C01A914110D311461846224689
:1002900000F0E0F92D1A67EB01084F4622460120D5
:1002A000002100F0D7F917EB00094E41201EA4F100
:1002B0000104DFDC484631462A464346BDE8F09F4C
:1002C0002DE9FE4F804681EA0300C00F0C460090E6
:1002D00021F0004123F00045B8EB0200A94105D20E
:1002E0004046214690461C460B46024623F00040FD
:1002F000104347D0270DC7F30A00C3F30A510290F9
:10030000401A019040286BDAC3F3130040F4801BBD
:100310000098924620B10023D2EB030A63EB0B0B4B
:1003200001985946C0F14002504600F093F9064644
:100330000D4650465946019A00F09BF910EB080013
:100340006141002487EA115284EAE7731A4340D0DE
:10035000009A62B3019A012A4FEA075215DC001B8A
:1003600061EB02014FF0004202EA0752CDE9004280
:10037000001C41F5801132462B4600F09BF903B07A
:10038000BDE8F08F40462146F9E7001B61EB020112
:10039000001C41F5801300185B412018A2F50017DE
:1003A00047EB030140EAD570B6196D4111E06D08C5
:1003B0004FEA360645EAC0754FEA0752001B61EB6B
:1003C0000201001C41F5801149084FEA3000001974
:1003D000514132462B4603B0BDE8F04F00F05BB907
:1003E0000098012240000023D0EB020263EBE0738F
:1003F000009821464FEAE074B8EB000061EB04017D
:10040000E9E783F000435BE781F0004158E72DE91D
:10041000FE4F81EA030404F0004421F000410094FF
:100420004FF0000B23F0004350EA01045ED052EA83
:1004300003045BD0C3F30A54C1F30A552C44A4F25D
:10044000F3340194A0FB0254C1F3130141F4801171
:10045000C3F3130343F4801301FB024400FB034E78
:10046000840A970A44EA815447EA8357A4FB076841
:1004700002958D0A05FB07854FEA932C04FB0C546B
:100480002705029D4FEA065847EA1637B5EB0805DF
:100490006EEB070C870E920E47EA811742EA831231
:1004A000A7FB0201B6EB0B0164EB00042B0D43EA42
:1004B0000C335E1844EB1C50DA465146E7FB020150
:1004C000C5F313044FEA0B3343EA14534FEA0432E3
:1004D000019C43EA0603A4F10C040294009CCDE9BC
:1004E00000B400F0E7F803B0BDE8F08F002001464B
:1004F000F9E72DE9F04D81EA030404F0004B21F007
:10050000004514464FF0000A23F0004150EA05026E
:1005100020D054EA01021DD0C5F30A570246C5F3A4
:100520001303C1F31300C1F30A5640F4801543F4DA
:100530008013A7EB0608101BD64608F2FD3873EBB4
:10054000050002D308F1010801E092185B41B8F1FF
:10055000000F03DA00200146BDE8F08D00204FF4C3
:100560008011064684460EE0171B73EB050705D382
:10057000121B63EB050306434CEA010C49084FEAE2
:10058000300092185B4150EA0107EDD152EA0300B6
:1005900012D082EA040083EA0501084305D0101B4B
:1005A000AB4106D20122002306E000224FF00043B7
:1005B00002E06FF0010253101AEB06004CEB0851F9
:1005C00010EB0A0041EB0B01BDE8F04D00F063B801
:1005D000C1F30A52C1F3130140F2FF3341F4801119
:1005E0009A4202DA00200146704740F233439A42B1
:1005F000A2F2334202DC5242FFF7E0BD00F02AB81B
:1006000030B5041E71F1000404DB4FF00044404299
:1006100064EB0101141E73F1000405DB1C464FF06E
:100620000043524263EB0403994208BF904230BD3D
:10063000064C074D06E0E06840F0010394E807002F
:1006400098471034AC42F6D3FFF754FDD858000851
:10065000F8580008202A04DB203A00FA02F10020B2
:1006600070479140C2F1200320FA03F319439040F0
:100670007047202A06DBCB17203A41FA02F043EA02
:10068000E07306E041FA02F3D040C2F1200291404B
:1006900008431946704710B5141E73F1000408DAB8
:1006A000401C41F1000192185B411A4301D120F036
:1006B000010010BD2DE9F04D92469B4611B1B1FAF3
:1006C00081F202E0B0FA80F220329046FFF7C2FFDA
:1006D00004460F4640EA0A0041EA0B0153465A46D7
:1006E000084313D0114653EA010019D0C8F1400263
:1006F0005046FFF763FD05460E46504659464246B2
:10070000FFF7A8FF084305D0012004E02046394642
:10071000BDE8F08D0020054346EAE0762C433743E0
:100720000A986305E40AA0EB08000022FD0A44EAE7
:1007300047540A3002D500200146E9E701051019A7
:100740006941DDE9084500196941BDE8F04DA2E7BE
:10075000014800F0E8B80000E402002070B504464B
:1007600000688168C943C90717D1816821F0010178
:10077000816000F0BBFC05460AE000BF00F0B6FC5B
:10078000401B022804D920688068C043C00706D0F7
:1007900020688068C043C007F0D0002070BDA06A08
:1007A00040F01000A062E06A40F00100E062012029
:1007B00070BDFEE7014800F07DBA00001403002080
:1007C000014800F077BA0000CC040020014800F096
:1007D00071BA00008804002030B590F84050012420
:1007E000AC40C56B6C60046863604368102B0368A1
:1007F00003D099600068C26030BD9A600068C16033
:1008000030BD704710B54FF4005000F065FB4FF459
:10081000804000F061FBBDE810404FF4004000F064
:100820005BBB72B6FEE77047F8B50024009490F801
:1008300024202546012A12D0012280F824204A686B
:100840001F23072A0DD20668776B521E02EB820225
:1008500093409F430B6893401F43776319E0022046
:10086000F8BD06680D2A0AD2376BD21F02EB82024E
:1008700093409F430B6893401F43376309E0F76A37
:100880000D3A02EB820293409F430B6893401F4353
:10089000F7620A68072306680A2A0AD3F7680A3A41
:1008A00002EB420293409F438B6893401F43F760E3
:1008B00008E0376902EB420293409F438B68934004
:1008C0001F4337610A68102A01D0112A20D1124B28
:1008D00002689A4217D193681B0219D4936843F4B3
:1008E000000393600968102912D10C490C4A096869
:1008F000B1FBF2F101EB8101490000E0491E0091DA
:100900000029FBD104E0816A41F0200181620124C9
:1009100080F824502046F8BD002401402800002023
:1009200040420F00704710B50446006841688906D0
:1009300026D50168890723D5A16AC90603D4A16A0F
:1009400041F40071A1628168C1F34241072910D1CD
:10095000217B71B9416821F020014160A06A20F437
:100960008070A062A06AC00403D4A06A40F00100B5
:10097000A0622046FFF7D6FF21686FF012000860E2
:100980002068416809062ED5016849072BD5A16A60
:10099000C90603D4A16A41F40051A1628168C1F380
:1009A0000231072909D04168490515D48168C1F38E
:1009B0004241072910D1217B71B9416821F08001A2
:1009C0004160A06A20F48050A062A06AC00503D4F0
:1009D000A06A40F00100A0622046FFF724FF2168D2
:1009E0006FF00C0008602068416849060DD500686A
:1009F000C0070AD0A06A40F48030A062204600F010
:100A000093F821686FF00100086010BD2DE9F041F6
:100A10004FF0000704003D467ED0A06A002628B9AA
:100A2000E66284F82460204600F080F82046FFF754
:100A300095FEA16AC90600D420B1A06A40F010005A
:100A4000A06269E0A16A21F4885141F00201A1622B
:100A50006268E169237B0A4347EA43010A43A168CC
:100A60004FF48077B94209D0012907D05FF0000127
:100A700094F814C0BCF1010F02D00AE03946F7E740
:100A8000F3B1A36A43F02003A362E36A43F00103D6
:100A9000E3622368D3F804C02CF4694C4CEA010CDF
:100AA000C3F804C021688B68DFF870C003EA0C0348
:100AB00013438B60A168B9420BD0012909D00CE027
:100AC000DFF85CC0A3690CEB43330B4343F40061D4
:100AD000DFE7218A0D05A5F580152168CB6A23F48F
:100AE00070032B43CB62216889680E4B19409142F9
:100AF00008D1E662A16A21F0020141F00101A16280
:100B0000BDE8F081A06A20F0020040F01000A06271
:100B1000E06A40F00100E0620120F1E7FDF7E1FF4B
:100B200000E0FFFFFE0E1FFF7047000070B586B0AB
:100B300000250646009501950295039500681E491B
:100B4000884236D11D49886940F4007088618869FF
:100B500000F400700490886940F00400886188699E
:100B6000694600F0040004900220009003200190E8
:100B7000134800F0BDF9144C1248C4E90005802068
:100B8000C4E9025080002061800060612020C4E937
:100B90000605204600F038F908B1FFF742FE34623E
:100BA000002205211220666200F0E0FD122000F014
:100BB000CFFD06B070BD00000024014000100240CF
:100BC00000080140080002401403002010B590F80E
:100BD00021100022022905D00421816380F8202001
:100BE000012010BD01680B6823F00E030B60016843
:100BF0000B6823F001030B6090F84030C46B0121B7
:100C000001FA03F3636080F8211080F82020104679
:100C100010BD000010B590F821100024022903D067
:100C20000421816301243DE001680A6822F00E027C
:100C30000A6001680A6822F001020A601A4A016823
:100C4000914201D1012121E0174A1432914201D190
:100C500010211BE0144A2832914201D1891515E078
:100C6000114A3C32914201D189140FE00E4A5032B0
:100C7000914202D14FF4803108E00B4A6432914234
:100C800002D14FF4801101E04FF08071064A083A1A
:100C90005160012180F82110002180F82010416B63
:100CA00001B18847204610BD0800024090F821009D
:100CB000704700002DE9F05FC16B0C6801680B689C
:100CC000D0F840C0042202FA0CF2494DDFF824A10A
:100CD000494E4A4FDFF828B1DFF828E122422CD0F4
:100CE0005A072AD50A68920603D40A6822F0040239
:100CF0000A600168A94201D1042219E0514501D1DD
:100D0000402215E0B14202D14FF4806210E0B942B6
:100D100002D14FF480420BE0594502D14FF48022BA
:100D200006E0714502D14FF4800201E04FF080628D
:100D30002F4908394A60C16A3BE04FF0020808FABF
:100D40000CF818EA040F4FF000094FF0010235D0FB
:100D50005FEA837832D50B689B0605D40B6823F0D5
:100D60000A030B6080F821200168A94201D1022208
:100D700019E0514501D1202215E0B14202D14FF4D2
:100D8000007210E0B94202D14FF400520BE0594515
:100D900002D14FF4003206E0714502D14FF4001247
:100DA00001E04FF00072124908394A6080F8209043
:100DB000816A00291AD0BDE8F05F0847082505FAC6
:100DC0000CF5254212D01B0710D50B6823F00E033B
:100DD0000B6090F84010C36B02FA01F15960826316
:100DE00080F8212080F82090016BE2E7BDE8F09FB9
:100DF000080002401C000240300002404400024053
:100E0000580002406C00024030B528B308C81349AE
:100E100014221944B1FBF2F18900C16310498163C6
:100E2000022141771A6843F6F0718A43D0E9001431
:100E30002143D0E902452C432143046921434469FD
:100E40002143846921431143196000214163012238
:100E500042770177084630BD012030BDF8FFFDBF65
:100E60000000024070B5044690F8200000250128DB
:100E70000CD0012084F8200094F821600020012E7D
:100E800006D084F820000225284670BD022070BDDF
:100E9000022684F82160A0632068066826F0010617
:100EA00006602046FFF798FCE06A00282068016889
:100EB00002D041F00E0106E021F00401016020683B
:100EC000016841F00A0101602068016841F00101F8
:100ED0000160D9E770470000044910B50A68024272
:100EE00002D00860FFF7F6FF10BD000014040140B7
:100EF0002DE9F84FDFF8B891002409F1040A0AF14E
:100F0000040B23460F270BF1040EC9E00125A54071
:100F10002A40AA427DD1674ED1F804C0ACEB060846
:100F2000B44532D014DCBCF1030F3AD009DCBCF17B
:100F3000000F2AD0BCF1010F1CD0BCF1020F31D13F
:100F40001DE0BCF1110F17D0BCF1120F2AD119E02E
:100F5000B8F5881F19D006DCB8F5803F15D0B8F574
:100F6000801F1FD111E0B8F5001F0ED0B8F5041F87
:100F700018D10AE0CB6815E0CB681B1D12E0CB68E6
:100F800008330FE0CB680C330CE08B682BB1012BDE
:100F90004FF0080303D0456104E0042302E005613B
:100FA00000E00023FF2A01D8064601E000F1040614
:100FB0004FEA840501D9A5F12005D6F8008007FA8B
:100FC00005FC28EA0C0803FA05F548EA0508C6F806
:100FD00000804D68ED0062D5374DAE6946F00106E0
:100FE000AE61AD6924F0030605F001050095334DAF
:100FF00006EB050CDCF80850A607360F07FA06F8D2
:1010000025EA0805DFF8B880404503D14FF0000815
:1010100017E044E0DFF8AC80404502D14FF0010812
:101020000FE0DFF8A480404502D14FF0020808E04D
:10103000DFF89880404502D14FF0030801E04FF0FF
:10104000040808FA06F848EA0508CCF808804D6854
:10105000D9F80060ED034D4601D5164300E09643F4
:101060002E604D68DAF80060AD03554601D5164391
:1010700000E096432E604D68DBF80060ED025D46AF
:1010800001D5164300E096432E604D68DEF80060FF
:10109000AD02754601D5164300E096432E60641CF0
:1010A0000D682A46E5407FF431AFBDE8F88F0000B7
:1010B0000004014000001110001002400000014037
:1010C00000080140000C01400010014000140140E4
:1010D000C26821EA02030A4043EA02410161704703
:1010E0000AB1016170470904FBE70000014880680C
:1010F000704700001C000020704770472DE9F04148
:10110000016804464A694E6890F83E000025D743BE
:10111000FA050BD4F243D20508D46FF4807201258E
:101120004A6121680A6842F400420A60B90508D49D
:10113000F143C90505D422686FF4007145F002053A
:101140005161790525D4F143C90522D4638D94F802
:101150003D10226B202808D13BB9212910D0292924
:101160000ED0282901D1212A0AD022686FF480618B
:10117000516145F00405102806D0402804D008E04D
:10118000204601F083FE04E02068016841F400710C
:101190000160380508D4F043C00505D421686FF418
:1011A000006045F008054861002D07D0206C2843F9
:1011B00020642046BDE8F04101F0DABABDE8F081D4
:1011C0002DE9F047026800215368C66A90F83E4056
:1011D00090F83D50102C12D0402C10D0046C002CF4
:1011E0007DD05469E443A6077AD4DE43B60577D4AC
:1011F000036C03B19169BDE8F04701F023BE976924
:1012000051694FF42A0CC9435FEAC1784FF02A496B
:1012100004D066452AD04E4528D010E0DE43B605FE
:101220000DD4C16A614501D1012103E0C16A49457C
:1012300001D10821C162BDE8F04701F06DBD0E0784
:1012400016D4DE43B60513D4416CC9B21161416BAB
:1012500009B1896A29B9816B002907D0896A0029F7
:1012600004D00068416841F400614160BDE8F08746
:101270008E0706D4DE43B60503D4BDE8F04701F07F
:101280009FBCFE43526876074FEA02521DD4002AE3
:10129000ECDB0A0608D4DA43520505D4490705D524
:1012A000BDE8F04701F030BC4907DFD4D9438905D8
:1012B000DCD4212D05D0402CD8D1BDE8F04701F079
:1012C00071BDBDE8F04701F0DDBB002ACEDB4A0668
:1012D0000BD4DA43520508D4490708D501E00DE0E4
:1012E0000EE0BDE8F04701F059BB4907BED4D94331
:1012F0008905BBD4BDE8F04701F0E6BA916970E713
:10130000E10606D4D943890503D4BDE8F04701F0CE
:10131000FFBD2821212D27D0292D25D0650655D4A4
:10132000DD436D0552D4640752D590F83D30448DAD
:10133000002C9BD01269446A2270426A521C42629D
:10134000428D521E4285428D002A8FD12A2B8DD18B
:101350000268536823F4806353602222026380F89A
:101360003D1000F07BF981E7250623D4DD436D05B0
:1013700020D4640720D590F83D30448D002CF2D065
:10138000446A24781461426A521C4262428D521EA1
:101390004285428D002AE6D1292BE4D102685368A8
:1013A00023F4806353602122026380F83D1000F033
:1013B00056F95BE76107D6D4D9438905D3D4418D6B
:1013C0000029D0D0416A097811610AE06107CAD4C6
:1013D000D9438905C7D4418D0029C4D01169426A17
:1013E0001170416A491C4162418D491E41853DE7AA
:1013F0007047000070B5040025D094F83D0000252A
:1014000020B984F83C50204600F0BEF8242084F82F
:101410003D002068016821F0010101602068016839
:1014200041F4004101602068016821F4004101603D
:1014300000F000FB4D4A6168914201D84C4900E040
:101440004C49884201D2012070BD4B492368B0FB52
:10145000F1F15E6826F03F060E435E6063689342DA
:1014600006D94FF4967359434FF47A73B1FBF3F1F5
:101470002368491C1E6A26F03F06314319626168E1
:10148000914210D84900401EB0FBF1F2521CC2F349
:101490000B02042A01D2042022E0B0FBF1F0401C30
:1014A000C0F30B001CE0A268F2B301EBC10303EB35
:1014B0000116431EB3FBF6F35B1C43F480431B058C
:1014C00049D092B301EBC10202EB0111401EB0FB07
:1014D000F1F0401CC0F30B0040F4804040F40040A9
:1014E0002168CA694CF6FF739A431043C861D4E976
:1014F000071001432068026822F0C0021143016016
:10150000D4E9030101432068826848F2FF339A431B
:1015100011438160D4E9050108432168CA6822F0BB
:10152000FF021043C86001E00EE016E02068016889
:1015300041F0010101602564202084F83D0025630D
:1015400084F83E50002070BD01EB4106431EB3FB02
:10155000F6F35B1CB3E70120C2E701EB4101401E3B
:10156000B0FBF1F0401CC0F30B00B7E7A086010010
:1015700080841E0000093D0040420F007047704704
:10158000704770477047000030B585B0002100916A
:101590000191029103912D4D03682D4C12210322DC
:1015A0002C48AB4225D1A36943F00803A361A3698A
:1015B000039203F008030493C023CDE90031694688
:1015C000FFF796FCE06940F40010E061E06900225A
:1015D00000F40010049005211F2000F0C7F81F2020
:1015E00000F0B6F800220521202000F0BFF82020EE
:1015F00028E0194DAB4227D1A36943F00803A3614A
:10160000A369039203F0080304934FF44063CDE908
:1016100000316946FFF76CFCE06940F48000E0614E
:10162000E069002200F4800004900521212000F0F0
:101630009DF8212000F08CF800220521222000F0E6
:1016400095F8222000F084F805B030BD0054004029
:1016500000100240000C01400058004070477047E5
:101660000248816802781144816070471C000020A4
:10167000074810B5016841F010010160032000F037
:1016800095F8002000F006F800F03EF8002010BDAC
:101690000020024000B5014687B000221C2000F067
:1016A00065F81C2000F054F81448C16941F00101AC
:1016B000C161C06905A900F001000690684600F00C
:1016C00093F900F0B7F90E494000B0FBF1F10D4875
:1016D0004FF08042491E0260416040F2E732002133
:1016E000C0E90321816000F08DFB10B1012007B03B
:1016F00000BD044800F0B4FBF9E700000010024010
:1017000040420F00100500200F4808B5816941F0E4
:1017100001018161816901F001010091C16941F01C
:101720008051C161C069002200F0805000900F21FB
:10173000901E00F01BF80548416821F0E06141F07F
:101740000071416008BD000000100240000001402F
:10175000002809DB00F01F020121914040098000B0
:1017600000F1E020C0F8001170470000F0B40E4B0B
:101770001B680C46C3F30223C3F10705042D00D9EF
:101780000425191D072901D2002300E0DB1E0126D4
:1017900006FA05F1491E214099409E40761E1640EA
:1017A0003143F0BC02F0D6B80CED00E0064900F081
:1017B000070208684FF6FF03184040EA0220034A78
:1017C00010430860704700000CED00E00000FA05CF
:1017D0002DE9F84305460078354CC00754D0E06940
:1017E0000026C00008D4E06940F08050E061E06964
:1017F000012600F0805000902E480168C90512D4DF
:101800000168804641F480710160FFF76FFC074674
:1018100005E000BFFFF76AFCC01B642823D8D8F896
:101820000000C005F6D5206A10F4407021D0A988C8
:1018300001F4407181421CD0206A1F49012220F42A
:1018400040700A6000220A602062C00711D0FFF7D2
:101850004DFC074641F2883808E000BFFFF746FC20
:10186000C11B414502D90320BDE8F883206A8007E7
:10187000F4D5206A696820F44070084320621EB1E4
:10188000E06920F08050E0612878800705D5606825
:10189000A96820F44040084360602878C00605D558
:1018A0006068E96820F48000084360600020DBE79E
:1018B0000010024000700040400442422DE9F04711
:1018C0000F46050061D0434E306800F00700B84273
:1018D00009D2306820F0070038433060306800F0EB
:1018E0000700B84251D128683B4C810712D5400708
:1018F00003D5606840F4E06060602878000703D595
:10190000606840F4605060606068A96820F0F00092
:10191000084360602878C00728D06868012810D084
:101920002168022810D0890700292EDA616821F089
:10193000030101436160FFF7D9FB804641F288391A
:101940000DE021688903EFE78901EDE7FFF7CEFBA2
:10195000A0EB0801494502D90320BDE8F087606883
:10196000696800F00C00B0EB810FEFD1306800F037
:101970000700B8420BD9306820F0070038433060C8
:10198000306800F00700B84201D00120E5E7287870
:10199000400705D56068E96820F4E06008436060AE
:1019A0002878000706D56068296920F4605040EA6D
:1019B000C100606000F05EF86168084AC1F303117D
:1019C000515CC8400649086006480068FFF762FE9F
:1019D0000020C2E700200240001002408D5800089D
:1019E00028000020200000200F2202600C4A5368CB
:1019F00003F003034360536803F0F003836053680C
:101A000003F4E063C36052684FF4E06303EAD20278
:101A100002610448006800F0070008607047000099
:101A2000001002400020024001480068704700009A
:101A3000280000200448054900684968044AC1F3A9
:101A40000221515CC840704728000020001002406D
:101A50009D5800080448054900684968044AC1F3D4
:101A6000C221515CC840704728000020001002408D
:101A70009D58000812A185B00FC98DE80F0014A071
:101A8000144A006804905168134801F00C03042BB9
:101A900010D0082B0ED1C1F38343C9031DF80300F6
:101AA0000AD5516804AAC1F34041515C0A4A504327
:101AB000B0FBF1F005B0704708494843FAE7000071
:101AC00002030405060708090A0B0C0D0E0F10107F
:101AD000010200000010024000127A0000093D00DF
:101AE0002DE9F84F040070D02078C04DC00749D0D0
:101AF0006868C0F38100012807D06868C0F38100DE
:101B0000022809D16868C00306D52868800339D542
:101B100060680028E7D035E06068B0F5803F0BD002
:101B200010B1B0F5A02F11D0286820F480302860C3
:101B3000286820F4802002E0286840F48030286083
:101B4000606890B1FFF7D2FA06460AE0286840F4D0
:101B500080202860F0E700BFFFF7C8FA801B6428E8
:101B600073D828688003F7D50CE0FFF7BFFA064664
:101B700005E000BFFFF7BAFA801B6428F0D8286898
:101B80008003F7D420789A4E80074FF001094FF078
:101B9000000839D5686810F00C0F07D06868C0F3EA
:101BA0008100022809D16868C00306D4286880072C
:101BB00014D52069012808D110E02069B0B1C6F819
:101BC0000090FFF793FA074605E00AE1FFF78EFA67
:101BD000C01B0228C4D828688007F7D52868616927
:101BE00020F0F80040EAC10028600DE0C6F800804F
:101BF000FFF77CFA074604E0FFF778FAC01B0228DB
:101C000023D828688007F7D4207800072CD5794896
:101C1000A169D9B1C0F80090FFF768FA074604E05F
:101C2000FFF764FAC01B02280FD8686A8007F7D54F
:101C300071484FF4FA510068B0FBF1F0009000BF1A
:101C40000098411E0091FAD20EE080E0C0F80080BA
:101C5000FFF74CFA074604E0FFF748FAC01B0228DA
:101C600075D8686A8007F7D42078400760D5E8699E
:101C70000027C00008D4E86940F08050E861E869B6
:101C8000012700F0805000905C480168C90513D41A
:101C90000168834641F480710160FFF727FA8246AC
:101CA00006E000BFFFF722FAA0EB0A0064284ED836
:101CB000DBF80000C005F5D5E06801280AD008B1BE
:101CC000052813D0286A20F001002862286A20F035
:101CD000040002E0286A40F001002862E06841F256
:101CE000883B98B1FFF702FA82460BE0286A40F081
:101CF00004002862EEE700BFFFF7F8F9A0EB0A0145
:101D000059455AD8286A8007F6D50CE0FFF7EEF956
:101D1000824605E0FFF7EAF9A0EB0A0159454CD8E5
:101D2000286A8007F6D41FB1E86920F08050E86186
:101D3000E06988B36968C1F38101022944D00228AF
:101D4000C6F8608004D0FFF7D1F9044638E034E0EB
:101D5000FFF7CCF9074604E0FFF7C8F9C01B0228DB
:101D60002BD828688001F7D4206AB0F5803F05D1D0
:101D70006868A16820F4003008436860D4E908016D
:101D80000843696821F4741108436860C6F86090DC
:101D9000FFF7ACF9044606E025E000BFFFF7A6F91F
:101DA000001B022809D828688001F7D51BE000BF76
:101DB000FFF79CF9001B022802D90320BDE8F88F29
:101DC00028688001F4D40EE00128F7D06868226A00
:101DD00000F48031914204D1616A00F470108842AD
:101DE00001D00120EAE70020E8E7000000100240EF
:101DF000000042428004424228000020007000405F
:101E00007047704710B5040003D094F83D0010B13E
:101E100007E0012010BD002084F83C00204600F0BF
:101E20001EF8022084F83D00211D206801F004FB0B
:101E3000012084F8460084F83E0084F83F0084F8CE
:101E4000400084F8410084F8420084F8430084F89C
:101E5000440084F8450084F83D00002010BD704720
:101E600090F83D10012901D001207047022180F82F
:101E70003D100168CA6842F00102CA6000680B495F
:101E8000884208D0B0F1804F05D00949884202D07D
:101E90000849884204D1816801F00701062903D06E
:101EA000016841F00101016000207047002C0140F1
:101EB0000004004000080040704770B50446006808
:101EC00001694FF00005C943890715D4C168C943AA
:101ED000890711D4E91E01610120207720688069FB
:101EE0008007204602D0FFF7E7FF04E000F098F8F3
:101EF000204600F096F8257720680169C943490714
:101F000017D4C168C943490713D46FF004010161B4
:101F1000022020772068806910F4407F204602D09C
:101F2000FFF7CAFF04E000F07BF8204600F079F8E4
:101F3000257720680169C943090716D4C168C943D8
:101F4000090712D46FF0080101610420207720688E
:101F5000C0698007204602D0FFF7AEFF04E000F022
:101F60005FF8204600F05DF8257720680169C943D5
:101F7000C90617D4C168C943C90613D46FF010014C
:101F80000161082020772068C06910F4407F204656
:101F900002D0FFF791FF04E000F042F8204600F085
:101FA00040F8257720680169C943C90708D1C1688D
:101FB000C943C90704D1891E0161204600F032F8E7
:101FC00020680169C943090609D4C168C9430906E3
:101FD00005D46FF0800101612046FFF711FF2068F2
:101FE0000169C943490609D4C168C943490605D4F2
:101FF0006FF040010161204600F01BF82068016984
:10200000C94389060BD4C168C943890607D46FF058
:10201000200101612046BDE87040FFF7F2BE70BDAF
:10202000704770470068B0F1804F01D1FFF718BBCF
:1020300070477047704710B504460068416994F8CE
:102040003D20C1F3C011212A0BD151B1416921F0CA
:1020500080014161606B08B1FEF7B8FD204601F0D8
:10206000BCFA2068416994F83E20C1F38011222A0D
:102070000BD151B1416921F040014161A06B08B120
:10208000FEF7A4FD204601F090FA002010BD704735
:10209000F8B5026804461068D168536910F00F0F54
:1020A0004FF0000553D003F0010601F49077374359
:1020B0005FD0C20705D0CA0503D5226C42F00102E9
:1020C0002264420705D5DA0703D0226C42F00202EF
:1020D0002264820705D5DA0703D0226C42F004029D
:1020E0002264020707D501F02002324303D0226C9C
:1020F00042F008022264226C002A34D0800604D503
:10210000880602D5204601F071FA20684069216CEA
:10211000C0F38010090700D430B3204601F045FA1F
:102120002068416949061BD5416921F040014161A0
:10213000A06BA8B158494163A06BFEF76BFD002866
:1021400011D0A06B416B01B0BDE8F0400847830699
:102150000FD58B060DD52046BDE8F84001F046BAF4
:102160002046FFF794FFF8BD2046FFF790FF256457
:10217000F8BD266B2023012E52D1C60650D5CE06BF
:102180004ED5106850680090506940062AD5A16B62
:10219000086840680004000CEAD0A68D8642E7D9A2
:1021A000E0858869202818D0D06820F48070D0603D
:1021B0002068416921F0010141612068416921F0F5
:1021C0004001416184F83E3025632068C16821F0F8
:1021D0001001C160A06BFEF7F9FCA08DE18D401AE3
:1021E00081B219E0A08DE18D401A81B2E08D002806
:1021F000BED00029BCD0D06820F49070D060206898
:10220000426922F00102426184F83E302563206871
:10221000C26822F01002C2602046FFF70BFFF8BD33
:1022200005062BD50D0629D594F83D002128F6D1B9
:10223000A068B0F5805F01D12069B0B1206A411C6F
:102240002162216800784860E08C401E0004000C88
:10225000E084E4D12068C16821F08001C160206879
:10226000C16841F04001C160F8BD206A0088C0F338
:1022700008005060206A801C2062E5E74006F3D524
:102280004806F1D5D168204621F04001D16084F89C
:102290003D3000F0E1F9F8BDA534000870B5040048
:1022A00004D094F83D00002510B106E0012070BD77
:1022B00084F83C50204600F023F8242084F83D00A8
:1022C0002068C16821F40051C160204601F0EAF99C
:1022D0002068016921F4904101612068416921F081
:1022E0002A0141612068C16841F40051C160256440
:1022F000202084F83D0084F83E00002070BD0000DE
:102300002DE9F04186B000240094019402940394D6
:102310000646444F0368444902200322434DBB4212
:1023200051D18B6943F480438B618B6903F4804303
:1023300004938B6943F004038B618969039201F074
:10234000040104910102CDE9001069462846FEF718
:10235000CFFD2815CDE90004694628460294FEF712
:10236000C7FD344D32484FF08008C5E90004C5E987
:1023700002482C6187146C61C5E906472846FEF7C0
:1023800043FD08B1FEF74DFAB5636E62294D28484A
:102390004435143801C51020A5E81101254845F839
:1023A000104944306C61C5E90647FEF72DFD08B1C0
:1023B000FEF737FA75630022052125206E62FFF7CC
:1023C000D5F9252028E01C4EB34227D1CB6943F430
:1023D0000033CB61CB6903F4003304938B6943F082
:1023E00004038B618969039201F0040104910421C3
:1023F000CDE9001069462846FEF77AFD0820CDE9B0
:102400000004694628460294FEF772FD0022092165
:102410002620FFF7ABF92620FFF79AF906B0BDE8B2
:10242000F081000000380140001002400008014027
:1024300058000240880400200044004090F83E30DC
:10244000202B0ED159B152B190F83C30012B08D05D
:10245000012380F83C300023036301F07FB90120A1
:1024600070470220704790F83E30202B0ED159B1B2
:1024700052B190F83C30012B08D0012380F83C3059
:102480000023036301F0A2B90120704702207047C6
:1024900038B50068164988420CD1164841880A04AC
:1024A00008D4154A4D044FF00004137811D50A2BB7
:1024B00001D0448038BD41F4004141800F48694655
:1024C000006802F067FE0028F4D10DA001F020FAA8
:1024D00038BD0D2B08D0C1F30D05491C89B25355E9
:1024E0004180C729E5D838BD41F48041418038BDDD
:1024F0000038014016000020580500201000002080
:1025000055534152543120676976652073656D617A
:1025100070686F7265206661696C65640D0A000001
:10252000704700002DE9F843044690F83D001F462F
:1025300016460D4620284CD1C5B1BEB194F83C00DA
:10254000012846D0012084F83C004FF00008C4F870
:102550004080212084F83D00FEF7C8FDA684814616
:10256000E684A068B0F5805F03D004E00120BDE8F8
:10257000F883206928B12E465FF0000584F83C807E
:102580000EE00026FAE78021204601F03AF9A0B9D2
:10259000AEB116F8010B21684860E08C401EE08463
:1025A000E08C4B464FF0000200970028EBD14FF033
:1025B0004001204601F025F930B10320D7E735F876
:1025C000020BC0F30800E6E7202084F83D0000205D
:1025D000CDE70220CBE7000070B5044690F83D003F
:1025E000202830D169B362B394F83C0001282AD086
:1025F000012084F83C002162A284E2840025256445
:10260000212084F83D00636B10489862636B10488A
:10261000D862636B0F481863606B13464563266886
:10262000606B321DFEF71EFC21686FF040000860F1
:1026300084F83C502068416941F0800141610020EC
:1026400070BD012070BD022070BD00007335000810
:10265000A1350008B53400080649884208D106496A
:102660000120087005480068016821F0010101603F
:10267000704700000004002016000020CC04002059
:102680007047FEE70148FEF739BD000058030020FF
:102690000148FEF795BD0000580300200148FEF7F1
:1026A0002DBD0000AC0300200148FEF789BD0000ED
:1026B000AC03002038B5406A002190F83D202B4B38
:1026C00046F2A8141B68B3FBF4F3C3EBC30303EB9C
:1026D000830300933BB15B1E009303681B689B055B
:1026E00005D5009BF6E7036C43F020030364436BBE
:1026F00003B19962836B03B1996203681C6824F487
:1027000080641C604185436B03B15963836B03B1E3
:10271000596303681C6824F001041C6090F83D4074
:102720002023602C0BD0282434EA02020FD080F83A
:102730003D3080F83E1000BFFEF75AFE38BD80F8ED
:102740003D3080F83E100164FEF7D6FC38BD0268CB
:10275000136843F0010313600268136843F4806355
:102760001360016380F83D40E6E700002800002088
:1027700070B5044690F83D0094F83E10102901D041
:10278000402906D1222804D121680A6822F4006277
:102790000A60282131EA00024FF000054FF02006C0
:1027A00026D021684968090505D4602803D084F83B
:1027B0003D6084F83E50256320684168090537D59F
:1027C000416821F400614160606B3D4990F821202F
:1027D000012A11D04163606BFEF71CFA38B3206800
:1027E000016821F00101016084F83D60606B1CE02C
:1027F000256384F83D10DFE7A06B4163A06BFEF713
:1028000009FAA0B120684169C943490605D40069A5
:10281000616A0870606A401C60622068016821F08B
:102820000101016084F83D60A06B416B884710E0B6
:1028300094F83D10602910D04169C943490605D478
:102840000069616A0870606A401C60622046FEF799
:10285000CFFD206CC1071CD115E084F83D602564D4
:102860004169C943490605D40069616A0870606A14
:10287000401C60622068016821F00101016020466F
:10288000FEF73AFCE5E7810703D4410701D40007CE
:1028900004D52068416821F4E061416094F83D006E
:1028A000216C49070BD5282809D10648E062256329
:1028B00084F83D6084F83E502046FEF75FFE70BD10
:1028C000B52600080000FFFF10B5C26A438D0168FD
:1028D000042B06D0438D032B08D0438D022B1DD033
:1028E00012E04A6822F480624A600CE04B6823F4EC
:1028F00080634B60042A06D0022A04D001680A686B
:1029000022F480620A6001680969426A1170416AB2
:10291000491C4162418D491E418510BD012A30D0BC
:10292000102A2ED0042A30D0022A2ED00A6842F46F
:1029300000720A6001680969426A1170416A491CA3
:102940004162428D521E4285026812690A70416AD4
:10295000491C4162418D491E418501684A6822F443
:1029600040724A60202180F83D1090F83E200021FE
:10297000402A80F83E100CD012210163FEF7FFFDC3
:1029800010BD0A6822F48062D3E70A6842F48062CC
:10299000CFE70163FEF7F5FD10BD000038B590F8F4
:1029A0003D10222914D1418D032912D901680969EA
:1029B000426A1170416A491C4162418D491E41853C
:1029C000418D032904D10068416821F48061416090
:1029D00038BDC26A022AFBD0012901D00029F7D1F3
:1029E000274946F2A81300220968B1FBF3F101EB75
:1029F0008101009101682023009C641E009422D074
:102A00000C68A405F8D40C6824F480640C60016898
:102A10004C6824F4E0644C6001680969446A2170E0
:102A2000416A491C4162418D491E418580F83D3013
:102A300090F83E1080F83E2040291DD012210163FD
:102A4000FEF79DFD38BD046C44F0200404644C681E
:102A500024F4E0644C6001680969446A2170416AA9
:102A6000491C4162418D491E418580F83D3080F806
:102A70003E20FEF7BDFC38BD0263FEF782FD38BD87
:102A80002800002010B5C26A90F83D1021290BD112
:102A9000418D51B1416A026809781161416A491C4E
:102AA0004162418D491E418510BD20230021082A25
:102AB00013D0202A11D012F5803F0ED0026854683E
:102AC00024F4E06454601122026380F83E1080F820
:102AD0003D3000BFFEF754FD10BD0268546824F479
:102AE000E06454600268146844F400741460016384
:102AF00080F83D3090F83E2080F83E10402AE9D121
:102B0000FEF740FD10BD000010B590F83D1090F8A4
:102B10003E30C26A048DB4B1212903D0402B11D1BB
:102B200022290FD1418DE1B390F83E10402942D0C7
:102B3000416A026809781161416A491C4162418D0C
:102B4000491E418510BD2129E8D120230021082AF2
:102B500013D0202A11D012F5803F0ED0026854689D
:102B600024F4E06454601122026380F83E1080F87F
:102B70003D3000BFFEF704FD10BD0268546824F428
:102B8000E06454600268146844F4007414600163E3
:102B900080F83D3090F83E2080F83E10402AE9D180
:102BA00000E002E0FEF7EEFC10BD0068416821F491
:102BB0008061416010BDBDE8104000F0F3B8000036
:102BC00078B590F83E50C26A046B90F83D600023DF
:102BD0000168222E73D1066D0EB9402D6FD0056DA0
:102BE0001DB90569B5F5404F1BD0458D95B3468D90
:102BF000484D012E20D0448D022C4DD00C6844F459
:102C000080640C6001684C68240579D5AA4273D0B1
:102C1000012A71D0082A6FD0102A6DD0202A6BD0DB
:102C20006EE04A698A6900920A6842F480720A601A
:102C3000016D491C016578BDAA4214D10A6822F4CD
:102C400080620A6001684A68120504D50A6822F4A5
:102C5000806217E0FFE74A698A6900920A6842F4D5
:102C600000720A6050E0082A10D0202A0ED0122CE0
:102C70000AD0042A03D0022A01D0102AE6D10A6819
:102C800042F480620A603BE0012ADFD00A6822F445
:102C900080620A600168DEE7042A11D0022A0FD0A0
:102CA000102A0DD00C6844F400640C6001684C6973
:102CB0008C6900940C6824F480640C6008E025E0C2
:102CC0000C6844F480640C6001684C698969009167
:102CD00001684C68240517D5AA4207D0012A05D0FF
:102CE000082A03D0102A01D0202A0DD14A6842F4C4
:102CF00080524A6008E0FFE74A6842F480524A6026
:102D000001684A6989690091036578BD48698869E5
:102D1000009078BD0000FFFF90F83E10402910D0D1
:102D20000169B1F5804F19D0016DA9B3016D012979
:102D300010D1416C5FF0F10201F4407142EAD1110F
:102D400006E0016D0029416C05D0C9B241F00101D6
:102D500000680161704701F0FE01F9E790F83D104D
:102D60002129416C09D0C9B241F001010268116109
:102D7000416B29B1896A49B902E001F0FE01F5E72A
:102D8000816B0029E6D0896A0029E3D00068416898
:102D900041F4006141607047FFE7416CF02201F4AB
:102DA0004071CBE710B590F83D10026D22B3026D73
:102DB000012A2FD0026D022A1DD122292FD0428D47
:102DC0000AB1212933D0428D002A14D1212912D1F0
:102DD00001684A6822F4E0624A6001680A6842F4C5
:102DE00000720A6000210163202280F83D2080F8F3
:102DF0003E10FEF7C7FB10BDC16C0129816C02D0EB
:102E0000C1F3072108E00268C9B21161016D891C94
:102E1000016510BD816CC9B20268116104E00168EE
:102E20000A6842F480720A60016D491CF0E7416A49
:102E3000026809781161416A491C4162418D491E4D
:102E4000418510BD38B50C4690F83D20002128255D
:102E5000954302680B4605D051699169009180F84D
:102E60003C3038BD556825F480655560E243540711
:102E700000D50121120601D5828900E0028B80F87D
:102E80003C3092B2FEF739F938BD00002DE9F0412F
:102E900090F83D40C26A002320261C4F01686FF461
:102EA0008065082A01D0202A01D1282C04D0212CA9
:102EB00016D04D61BDE8F081C7624A6822F4E06235
:102EC0004A6001684D6101680A6822F480620A6004
:102ED000036380F83D6080F83E30FEF74FFBE9E782
:102EE000C7622122026380F83D6080F83E304A6864
:102EF00022F4E0624A6001684D6101680A6822F4C8
:102F000080620A60FEF7ABFBD4E700000000FFFF21
:102F1000F8B590F83D6004460068416821F4E0612E
:102F200041602068002541690091016841F001017C
:102F300001602068016821F48061016020684168B7
:102F4000090520D5474F222E48D02A2E46D0616B46
:102F5000096849686185618D19B1216C41F00401EE
:102F60002164416821F400614160606BFDF79EFEC1
:102F7000012808D0606B4763606BFDF74BFE10B112
:102F8000606B416B8847608D08B320684169C94315
:102F9000490708D40069616A0870606A401C606271
:102FA000608D401E608520684169C943490608D488
:102FB0000069616A0870606A401C6062608D401E32
:102FC0006085608D18B1206C40F004002064206C96
:102FD00000B32046BDE8F840FFF7CABBA16B096803
:102FE00049686185618D19B1216C41F0040121644A
:102FF000416821F400614160A06BFDF757FE012894
:10300000C1D0A06B4763A06BFDF704FE0028BAD0C7
:10301000A06BB6E72A2E06D12563282084F83D0050
:103020002046FEF71BFB94F83D10202028290DD0E8
:10303000216B222901D0222E07D1256384F83D007F
:1030400084F83E502046FEF709FBF8BD0649E162D0
:10305000256384F83D0084F83E502046FEF78EFA42
:10306000F8BD0000B52600080000FFFF3EB50021B6
:103070001148009101910F4A029102608160017331
:10308000017501244FF460220461C2614160FDF7C3
:10309000BDFC08B1FDF7C5FB05200094CDE901405A
:1030A00069460548FDF7C0FB002801D0FDF7B9FBD4
:1030B0003EBD000000240140E4020020114808B594
:1030C000416941F0010141614069002200F00100C5
:1030D000009005210B20FEF749FB0B20FEF738FB83
:1030E000002205210E20FEF741FB0E20FEF730FBEB
:1030F000002205210F20FEF739FBBDE808400F2014
:10310000FEF726BB0010024010B59EB000201C90B8
:103110001D9001211CA801F05EF9194C4FF0FF3100
:10312000206102F085F81C2216496846FDF756F822
:103130000021684601F06EF9124920601C221C3102
:1031400007A8FDF74BF8002107A801F063F90D4926
:1031500060601C2238310EA8FDF740F800210EA84F
:1031600001F058F90749A0601C22543115A8FDF759
:1031700035F8002115A801F04DF9E0601EB010BD32
:1031800000000020145800082DE9F04385B0002508
:1031900032480095019502950395816941F010012F
:1031A0008161816901F010010491816941F0200180
:1031B0008161816901F020010491816941F004017C
:1031C0008161816901F004010491816941F0080184
:1031D00081618069012200F00800214E54030490AF
:1031E00021463046FDF77CFF0122DFF87890170278
:1031F00039464846FDF774FF009401240220CDE9CA
:103200000240694601943046FDF772FE164E4FF4B7
:10321000C040CDE90006DFF854806946029440467C
:10322000FDF766FEE003CDE90006694602954046DB
:10323000FDF75EFECDE900740294694648460394AA
:10324000FDF756FE002209212820FEF78FFA2820DC
:10325000FEF77EFA05B0BDE8F083000000100240E2
:10326000001001400008014000001110000C014056
:103270000D4810B50B4901600C49416000214FF425
:1032800080428160C0E9031241618161C1610162D4
:10329000FEF7B0F8002803D0BDE81040FDF7C1BA32
:1032A00010BD00000054004058030020A08601001B
:1032B0000D4810B50B4901600C49416000214FF4E5
:1032C00080428160C0E9031241618161C161016294
:1032D000FEF790F8002803D0BDE81040FDF7A1BA32
:1032E00010BD000000580040AC030020A086010083
:1032F00010B5114C0F480C2120604FF4E130606094
:103300000020A060E060C4E90401A061E061204603
:10331000FEF7C4FF08B1FDF784FA2068C16841F0E8
:103320001001C160BDE81040012204490248FFF7C6
:103330009AB8000000380140000400205805002021
:103340000C4810B50A4901604FF4E1314160002199
:1033500081600C22C160C0E904128161C161FEF785
:103360009DFF002803D0BDE81040FDF75ABA10BDFC
:103370000044004044040020FEE7FEE7012001F085
:103380001EF8FBE710B5502080F31188BFF34F8F74
:10339000BFF36F8F02F0A8F818B104494FF08050C6
:1033A0000860002080F3118810BD000004ED00E0EB
:1033B00030B593B028216846FCF729FF14210AA8EC
:1033C000FCF725FF002501200F95109511950104AC
:1033D00012958DE8230004904FF4E010CDE9081019
:1033E000022407946846FEF77BFB08B172B6FEE73D
:1033F0000AA90F2081E831004FF48060CDE90D0566
:1034000002210AA8FEF75AFA08B172B6FEE74FF495
:10341000004011900F940FA8FEF7DAF9002801D0B0
:1034200072B6FEE713B030BD704700000148FEF7EA
:1034300044BD000010050020F0B50268164B174C83
:10344000174D4FF08047984205D0B84203D0A042B4
:1034500001D0A84203D122F070064A683243984254
:1034600005D0B84203D0A04201D0A84203D122F433
:103470004074CA6822434C6922F0800222430260F1
:103480008A68C2620A688262984201D1096901634E
:1034900001214161F0BD0000002C0140000400400A
:1034A0000008004010B5406A0021C185C184FEF7C4
:1034B000EEFD10BD70B5446A2068406994F83D1077
:1034C000C0F3C0100025212904D118B1E58420469D
:1034D00000F083F82068406994F83E10C0F3801033
:1034E000222904D118B1E585204600F05EF8206C51
:1034F00040F0100020642046FEF7C9FD70BD10B5F5
:103500000146406A0968096889061BD40021C18503
:103510000168CA6822F48072CA6001684A6922F0B0
:1035200001024A6101684A6922F040024A61202191
:1035300080F83E10016B012904D10168CA6822F0AD
:103540001002CA60016B012902D0FEF7A1FF10BD75
:10355000818DFEF76FFD10BD10B5406A016B01292A
:1035600002D0FEF7DDFF10BD818D4908FEF762FD38
:1035700010BD10B50146406A0968096889060CD477
:103580000021C18401684A6922F080024A61006812
:10359000C16841F04001C16010BDFFF75DF810BD8A
:1035A00010B5406AFFF76CF810BD0168CA6822F4D4
:1035B0009072CA6001684A6922F001024A61016B97
:1035C000012904D10168CA6822F01002CA602021D2
:1035D00080F83E100021016370470168CA6822F03C
:1035E000C002CA60202180F83D10704708B590F8ED
:1035F0003E10222901D0022008BD82684FF480537A
:103600009A4201D1016921B1816A9A421BD04AB123
:103610000AE00268816A5268C2F308020A80816A7D
:10362000891C08E0026972B10268526802F07F02E8
:103630000A70816A491C8162C18D491E0904090C06
:10364000C18503D019E002685268F1E70168CA68D1
:1036500022F02002CA600168CA6822F48072CA603F
:1036600001684A6922F001024A61202180F83E1077
:10367000016B012903D0FEF70BFF002008BD0021DC
:1036800001630168CA6822F01002CA6001680A6812
:10369000D20602D50A6849680091818DFEF7CAFCFE
:1036A000EBE7000070B5044600680169E26821F4A8
:1036B0004051114301612169A068084361690843D1
:1036C0002168CA6841F20C639A430243CA602068C9
:1036D0004169A26921F44071114341611E4920688A
:1036E000884202D1FEF7B6F901E0FEF7A3F900EB3C
:1036F000C00101EB0012606864218000B2FBF0F3AE
:10370000B3FBF1F36FF018067343B2FBF0F5B2FBB5
:10371000F0F605EB8305322303EB0515B5FBF1F558
:10372000B6FBF1F605F0F00505EB0615B2FBF0F679
:10373000B2FBF0F0B0FBF1F06FF01802504306EB73
:10374000800003EB0010B0FBF1F0216800F00F00E7
:103750002844886070BD00000038014038B581629F
:1037600082850025134604460564222084F83E0025
:10377000A26B13489062A26B1248D062A26B1248EF
:103780001063A06B0A4645632168A06B091DFDF715
:1037900069FB206801684168009184F83C50C16869
:1037A00041F48071C1602068416941F001014161CB
:1037B0002068416941F040014161002038BD0000AE
:1037C000FF34000859350008B5340008816282854D
:1037D000C28500210164222280F83E2080F83C103E
:1037E0000168CA6842F48072CA6001684A6942F09E
:1037F00001024A610068C16841F02001C1600020F7
:1038000070472DE9F041984617460E460446069D3E
:103810001DE0681C1BD02DB1FDF768FCA0EB080073
:10382000A84214D92068C16821F4D071C160206811
:10383000416921F001014161202084F83D0084F8B4
:103840003E00002084F83C000320BDE8F0812068A1
:10385000006836EA000004D00020B842D9D0002029
:10386000F3E70120F9E7000010B50448FEF710FC6B
:10387000BDE81040014800F033B80000000400200B
:103880000148FEF705BC00004404002008B50948C3
:10389000FEF7D1FB08486946006801F07BFC10B9CF
:1038A00006A000F035F8C8220C490248FEF7C6FD14
:1038B00008BD0000000400201000002055534152B4
:1038C000543120676976652073656D6170686F7229
:1038D00065206661696C65640D0A0000580500206A
:1038E0000849094A82B00968914209D10A68D2435D
:1038F000D20605D40A684968009102B0FFF7C6BF36
:1039000002B070470004002000380140FEE70000CC
:103910000FB4054B10B503A9044A029800F0FCF857
:1039200010BC5DF814FB0000F94200088C00002078
:1039300037B514460846064B6A46214600F0ECF8B7
:1039400004466946002000F07EFC20463EBD000093
:10395000474200080907090E002804DB00F1E020B7
:1039600080F80014704700F00F0000F1E02080F8AC
:10397000141D704702E008C8121F08C1002AFAD1BE
:1039800070477047002001E001C1121F002AFBD1DF
:10399000704700002DE9FF5F82B00021DDE90430AF
:1039A000020DDDF840B0034318D044F61050A2F2E7
:1039B000FF3242431514119801281FD0A5EB0B00CC
:1039C000401C5FEA000A4FF000064E4FDFF83891C6
:1039D000B046504615D5CAF1000413E011980124F1
:1039E0004AA3012801D16FEA0B010298119AC0E99C
:1039F0000031C0E9024206B0BDE8F09FCBF1000003
:103A0000DFE704460021404A491842EB0450CDE963
:103A1000001012E0E00707D032463B4640464946D8
:103A2000FCF7F5FC8046894632463B46104619466F
:103A3000FCF7EDFC06460F466410002CEAD1DDE9E8
:103A40000401DDE90023BAF1000F06DAFCF7DFFC20
:103A500042464B46FCF7DBFC05E0FCF74AFD4246DC
:103A60004B46FCF746FD04460E460022284BFCF769
:103A7000C7FD03D84FF0FF30014607E00022254B79
:103A800020463146FCF71CFCFCF7A2FD102409E09F
:103A9000002C0ADB0A220023FCF7E1FB039B3032F7
:103AA0001A55641E50EA0102F2D1641C039AC4F153
:103AB00011031444119A012A03D0012208430DD1A5
:103AC0000AE0084304D000204FF0110B119072E778
:103AD000A3EB0B056D1E0DE05B4504DD4FF000020E
:103AE00005F1010504E003DA4FF00002A5F101053C
:103AF000002AECD002981199C0E90231C0E90045D2
:103B000079E70000000014400000F03F30000000A2
:103B10000000F0430000E03F2DE9FF4F95B09B46C9
:103B20008946064600250FE2252877D1002427463E
:103B3000F84A0121059400E0044316F8013F203BB8
:103B400001FA03F01042F7D130782A2811D06FF033
:103B50002F033078A0F13002092A16D8059A44F0D4
:103B6000020402EB820203EB42021044761C059031
:103B7000EFE759F8042B0592002A03DA504244F487
:103B80000054059044F00204761C30782E2816D19B
:103B900016F8010F44F004042A280DD06FF02F020C
:103BA0003078A0F13003092B09D807EB870302EB2B
:103BB0004303C718761CF3E759F8047B761C30786A
:103BC0006C280FD006DC4C2817D068280DD06A2846
:103BD00014D104E0742810D07A280FD10DE044F4F9
:103BE00000140AE044F4801401E044F440147278B4
:103BF000824202D104F58014761C761C3078662847
:103C00000BD013DC582877D009DC002875D0452864
:103C1000F6D04628F4D047281AD19DE118E0632851
:103C200035D0642879D0652812D195E1702873D0F9
:103C300008DC6728F1D069286FD06E280DD06F2876
:103C400006D1B5E073282CD0752875D0782874D0AB
:103C50005A46179990476D1C75E1C4F3025002282B
:103C600009D003280DD0D9F8001004280DD00D601C
:103C700009F1040967E1D9F80010EA17C1E9005217
:103C8000F6E7D9F800100D80F2E70D70F0E719F8AB
:103C9000041B8DF8001000208DF80100EA46012079
:103CA00003E059F804AB4FF0FF3061074FF000011B
:103CB00002D40DE008F101018846B9420FDA8045CF
:103CC000F8DB1AF808100029F4D108E008F1010126
:103CD00088468142FADB1AF808100029F6D10598C7
:103CE0005B46A0EB080721463846179A00F094FA85
:103CF000284400EB080507E04DE029E10DE01AF843
:103D0000010B5A4617999047B8F10108F7D25B4664
:103D100021463846179A13E142E00A220092C4F382
:103D200002524FF0000A022A08D059F804CB032AA5
:103D30004FEAEC710AD00DE029E02AE009F1070111
:103D400021F00702F2E802C1914609E00FFA8CFC6B
:103D50004FEAEC71042A03D14FFA8CFC4FEAEC7164
:103D6000002907DA0A460021DCF1000C61EB0201B0
:103D70002D2202E0220504D52B228DF804200122F9
:103D800003E0E20701D02022F7E7904659E00A213C
:103D900002E010220DE010214FF0000A00910BE02C
:103DA00010224FF0000A44F004040827009203E0B8
:103DB00008224FF0000A0092C4F30252022A05D0F2
:103DC00059F804CB0021032A08D009E009F10701C2
:103DD00021F00702F2E802C1914605E01FFA8CFCCF
:103DE000042A01D10CF0FF0C4FF00008220728D55F
:103DF000702806D0009B83F0100353EA0A0305D015
:103E00000EE040228DF80420012208E05CEA010265
:103E100006D030228DF804208DF80500022290464D
:103E2000009B83F0080353EA0A030AD15CEA01020B
:103E300001D1620705D530228DF804204FF001082A
:103E40007F1E582804D034A003900EA802900DE0E5
:103E500036A0F9E753466046009AFCF700FA84461C
:103E60000398825C0298401E029002705CEA010096
:103E7000F0D1029806A9081A00F1200A600702D5BD
:103E800024F4803400E00127574502DDA7EB0A0047
:103E900000E0002000EB0A01009005984144401A20
:103EA0000590E00306D45B462146179A059800F07A
:103EB000B3F90544002706E001A85A46C05D1799EA
:103EC00090476D1C7F1C4745F6DBE0030CD55B4635
:103ED0002146179A059800F09FF9054404E0302028
:103EE0005A46179990476D1C0099481E009000296A
:103EF000F5DC08E0029802995A460078491C0291C4
:103F0000179990476D1CBAF10001AAF1010AF1DC82
:103F100065E100000928010030313233343536378D
:103F20003839616263646566000000003031323305
:103F300034353637383941424344454600000000A5
:103F400000F058F90544761C307800287FF4ECAD79
:103F500019B02846BDE8F08F620700D4062709F1A2
:103F6000070222F0070CFCE80223E14603F00048B8
:103F70005FEA080C02D00FF2702C0DE05FEA045CDF
:103F800002D50FF2682C07E05FEAC47C02D00FF282
:103F9000602C01E0AFF2700C4FF0FF3823F00043CB
:103FA000CDF850C065280CD006DC452809D046283D
:103FB0001DD047283DD13DE0662818D067287ED126
:103FC00038E00021112F01DB112000E0781CCDE941
:103FD000000106A90EA8FFF7DDFCDDE90F010E9A2E
:103FE00003910021009207F1010A04914DE04FF086
:103FF00000400097CDE9011006A90EA8FFF7CAFC02
:10400000DDE90F0203920E9B11990022DDF80CA04E
:104010000093049211B9791C00EB010AB7EB0A0076
:1040200004D4C0F1FF3007F1010A0490AAEB0700A5
:10403000019044E0012F00DA01270021112F01DD5A
:10404000112000E03846CDE9000106A90EA8FFF7CF
:10405000A1FCDDE90F010E9A039100210491009269
:10406000BA4621070CD40399514500DA8A46BAF1C1
:10407000010F05DD009AAAF10101515C302908D039
:10408000B84202DA10F1040F06DA0121CDE901107D
:1040900015E0AAF10101E9E7002805DC04990144D3
:1040A0000491AAEB000102E0411C514500DD8A4663
:1040B0000499401A401C01904FF0004002902007E4
:1040C00004D40198504501DBCDF8048000208DF820
:1040D0004F0002980DF14F07B0F1004F25D02B2073
:1040E0000E9002984FF0020800280CDA404202902D
:1040F0002D200E9007E00A210298FCF79AF8303143
:10410000029007F8011DB8F10001A8F10108F2DCE6
:1041100002980028EFD1791E0E980870307800F0D0
:10412000200040F0450007F8020D12A8C01B00F166
:1041300007081498007800B1012000EB0A010198EB
:1041400001EBE07105984144401A401E0590E003E0
:1041500006D45B462146179A059800F05DF80544A1
:104160001498007818B15A46179990476D1CE003CF
:1041700024D55B462146179A059800F04DF8054472
:104180001CE00498002807DBDDE90301884203DD19
:104190000098405C179901E0179930205A469047E3
:1041A000049805F10105401C04900198401E0190FF
:1041B00004D12E205A46179990476D1CBAF1000180
:1041C000AAF1010ADDDC05E017F8010B5A46179940
:1041D00090476D1CB8F10001A8F10108F4DC5B46C2
:1041E0002146179A0598ABE62D0000002B00000031
:1041F000200000002DE9F041044600251E46174628
:10420000880404D405E039462020B0476D1C641EA4
:10421000F9D52846BDE8F0812DE9F0410446002596
:104220001E469046C80301D5302700E020278804A9
:1042300004D505E041463846B0476D1C641EF9D5EB
:104240002846BDE8F0810A68531C0B601070704767
:104250000E48016821F080710160016841F08071B1
:1042600001600B48016821F001010160016841F023
:10427000010101600021416000BF00BF00BF406834
:1042800008B100207047012070470000FCED00E0FD
:10429000001000E070B5044601F018F901280CD0B8
:1042A000094D2888844203D3B4FBF0F000F0C6FC2B
:1042B0002888B4FBF0F100FB11444FF47A7060439E
:1042C000BDE8704000F002B81400002031B5084D80
:1042D0006C68FDF7A9FB0749B0FBF1F00099484372
:1042E000009068680099001B8842FAD338BD00002E
:1042F000001000E040420F0038B504468DF8000081
:104300004FF6FF73012269460248FEF70BF920467B
:1043100038BD000000040020012000F050F8FBE749
:10432000094D4FF400544FF4FA76B223074A08A11E
:104330000DA000F049FB21462846FCF7C9FE304697
:10434000FFF7A8FFF1E700000010014084580008C3
:104350002E2E2F436F72652F5372632F6672656521
:1043600072746F732E630000496E666F2025732C84
:1043700025732C25643A206C65640D0A000000004A
:10438000FDF776F9FFF714F8FEF7FEFEFEF796FE4E
:10439000FEF7AEFFFEF76AFEFEF76AFFFEF788FF44
:1043A000FEF7CEFFFFF754FFFEF7AEFE00F00EF86B
:1043B000FEE701460020842900D0C81C704710B5D4
:1043C00000B9012000F03AFC002010BD10B500F04B
:1043D000D5FC002010BD38B543684BB1012909D187
:1043E0000320002200901146012000F0ABFD38BDF3
:1043F000012901D0002038BD03220021012000F056
:104400007DFD040004D000231A46194600F012FE78
:10441000204638BD7FB50D4604464169B0F9080015
:1044200081B1A16971B1FFF7C4FFD4E905128DE82C
:104430000700D4E900102B46226901F01CF8039014
:1044400004B070BDFFF7B5FF03A9CDE90001208AD4
:104450002B4682B2D4E9001000F0E0FF012801D021
:104460000020EDE70398EBE72DE9F041184C0F46EB
:10447000054666692068001D00F0F2FA38B9206828
:1044800090F82C1001208840A1698143A161681C2B
:1044900007D137B12168BDE8F0410E48091D00F091
:1044A00023BB20683544B5424560216805D2A06829
:1044B000BDE8F041091D00F0FFBA6068091D00F079
:1044C000FBFA206B854200D22563BDE8F081000035
:1044D0002C000020C40700202DE9F041054600F023
:1044E0000FFB2E4C2069401C206120682C4F10B11E
:1044F000E06940B32DE025602069012829D100261C
:1045000006EB860007EB800000F0C8FA761C072E49
:10451000F6D323488C3000F0C1FA2148A03000F0D7
:10452000BDFA1F48B43000F0B9FA1D48C83000F099
:10453000B5FA1B48DC3000F0B1FA19488C306060E5
:104540001430A06005E02068E96AC06A884200D89B
:104550002560E06A401CE062E96A0120A2698840A7
:104560001043A06101EB810007EB8000291D00F0E2
:10457000BBFA00F0E5FAE06900280CD02068E96A8F
:10458000C06A884207D207494FF080500860BFF3E5
:104590004F8FBFF36F8FBDE8F08100002C0000202B
:1045A000E806002004ED00E02DE9F041856B174698
:1045B00004460026026C82B1C7B1E068FBF70EFE2C
:1045C000E168206C091AE1602268914202D26168B8
:1045D000081AE060022F16D017E02068A8B96068BA
:1045E00000F0E6FF0646002060600EE0A068FBF7E2
:1045F000F5FD216CA0680844A0606168884204D37E
:104600002068A06001E005B16D1E6D1CA5633046F9
:10461000BDE8F08110B5044690F8510058B101286A
:104620000CD002280FD0502080F31188BFF34F8F99
:10463000BFF36F8FFEE7206B00F096FA2046BDE8CF
:10464000104000F091BA10BD10484FF420514207BD
:1046500006D0C01D0D4920F00700411AC1F52051B8
:104660000B4A00230144C2E900030839103A21F043
:10467000070111604B600B600B1AC0E900139360D7
:104680004FF000405360D06070470000D807002012
:1046900078000020144E154CA6F1C8074FF0805842
:1046A000DFF84C9012E000BF00F02AFAF068C5680D
:1046B000281D00F0D5F92069401E2061E068401EE9
:1046C000E06000F03DFA2846FFF7A4FFE06800280C
:1046D000EAD138680128F9D9C9F80080BFF34F8FB3
:1046E000BFF36F8FF2E70000B00700202C0000201E
:1046F00004ED00E00346009829B10260C0E90F31E3
:10470000012100F053BC0060F8E72DE9F0479A461C
:10471000DDE9098481466FF00303206B03EB82021D
:104720001044089D20F00706700707D0502080F342
:104730001188BFF34F8FBFF36F8FFEE723180A5C1A
:1047400083F834200A5C12B1401C1028F6D30027ED
:1047500084F84370072D00D30625E562C4E911579C
:10476000201D00F0A6F904F1180000F0A2F9246160
:10477000C5F107006462A061E76484F85070524696
:104780004946304600F00EF92060B8F1000F01D024
:10479000C8F80040BDE8F08730B5114900E0114687
:1047A0000A688242FBD34B685C18844203D140689C
:1047B00018444860084643681C18944209D1084CC4
:1047C000103C2468A24209D052681A4442600A6828
:1047D00012680260814200D0086030BD0460F9E7D1
:1047E0007800002010B5044600F08AF9A06B28B1CB
:1047F0005FF0000400F0A4F9204610BD0124F9E7A1
:1048000006484168096829B14168C968C9684968AA
:10481000016370474FF0FF31FAE700002C000020E1
:1048200008484068401C4FF0500080F3118804D0C5
:10483000BFF34F8FBFF36F8FFEE7BFF34F8FBFF311
:104840006F8FFEE7800000202DE9F041044600F064
:1048500057F994F9455004F1240609E0606A48B11B
:10486000304600F03BFF08B100F016FA6D1E6DB245
:10487000002DF3DC4FF0FF3684F8456000F060F95E
:1048800000F03EF994F9445004F1100709E0206962
:1048900048B1384600F022FF08B100F0FDF96D1E66
:1048A0006DB2002DF3DC84F84460BDE8F04100F007
:1048B00047B900002DE9F0410546002700F094FAC1
:1048C000314E306808B9FFF7BFFEF06805424BD1A2
:1048D000C5B3083568070ED005F00700C0F1080021
:1048E0000544680707D0502080F31188BFF34F8F2D
:1048F000BFF36F8FFEE72DB37068854234D822482E
:10490000103001460C6801E020460C466168A9425F
:1049100002D221680029F7D131688C4224D007687F
:104920002168016060680837411B10290FD96019A0
:10493000420708D0502080F31188BFF34F8FBFF398
:104940006F8FFEE710E041606560FFF725FF61684B
:104950007068401A7060B268904200D2B060F0682F
:1049600001430020C4E9000100F0F2FE780707D0FF
:10497000502080F31188BFF34F8FBFF36F8FFEE796
:104980003846BDE8F081000068000020044908684E
:1049900018B10868826C521C826408687047000075
:1049A0002C00002010B5031F4FF080741C601B1FEB
:1049B00021F001011960191F024B0B6014394038B6
:1049C0000A6010BD214800080FB470B50D4C207866
:1049D0000028FDD005AA0C480499FEF7A9FF002580
:1049E0000948FBF71FFC82B207490848FDF7F4FDB0
:1049F000074825700068016841F00101016070BC42
:104A00005DF814FB160000202006002000040020A2
:104A1000CC04002000250A4E0A4C6F1E394630692E
:104A200000F006FC2278084908A0FEF771FFC821B3
:104A30000548FBF7ECFB25800120FFF72BFCEDE799
:104A400000000020180000205805002064617461F7
:104A50003A2573206C656E3A25640D0A000000004B
:104A6000D0E9013201699A60D0E901235A604A68AD
:104A7000824201D182684A60002202610868401EB9
:104A80000860086870470000034B036003F154009E
:104A900008608020106070479000002000F108013D
:104AA0004FF0FF32C0E90112C160016100210160D5
:104AB000704700210161704730B50B685A1C02D065
:104AC00000F1080202E0026904E022465468256809
:104AD0009D42FAD953684B6099608A6051600861C1
:104AE0000168491C016030BD42684A6093688B6070
:104AF00093685960916008610168491C01607047C2
:104B0000502080F31188BFF34F8FBFF36F8F0A4996
:104B10004868401C486001280CD10848006810F023
:104B2000FF0F07D0502080F31188BFF34F8FBFF3E2
:104B30006F8FFEE7704700008000002004ED00E06A
:104B40000849486828B1401E486001D180F31188A7
:104B50007047502080F31188BFF34F8FBFF36F8FE2
:104B6000FEE700008000002070B5002827D0144D1B
:104B7000A0F108046168E868014207D1502080F381
:104B80001188BFF34F8FBFF36F8FFEE722683AB1F2
:104B9000502080F31188BFF34F8FBFF36F8FFEE774
:104BA0008143616000F020F96068696808446860CA
:104BB0002046FFF7F1FDBDE8704000F0C9BD70BDB3
:104BC000680000204FF0E02000210161816105496B
:104BD0004FF47A720968B1FBF2F1491E4161072175
:104BE000016170472800002010B5FBF7D1FA114988
:104BF00010280ED300F1E02090F8F0030A789042DC
:104C000007D2502080F31188BFF34F8FBFF36F8F0F
:104C1000FEE709480068896800F4E060884207D927
:104C2000502080F31188BFF34F8FBFF36F8FFEE7E3
:104C300010BD0000800000200CED00E010B5020067
:104C400014D00F48806B38B1502080F31188BFF327
:104C50004F8FBFF36F8FFEE700F0C6F800211046BC
:104C6000FFF702FC00F074FD002807D105494FF062
:104C700080500860BFF34F8FBFF36F8F10BD0000EF
:104C80002C00002004ED00E002498A6A02604969B4
:104C9000416070472C0000200149012048627047A4
:104CA0002C00002010B50C4650B109490968183194
:104CB000FFF702FF2046BDE810400121FFF7D4BBFB
:104CC000502080F31188BFF34F8FBFF36F8FFEE743
:104CD0002C00002070B504004BD0A26CA2B1606C17
:104CE000884200D30146E06A884242D0012A40D17E
:104CF000204D2A6894420FD1502080F31188BFF3D1
:104D00004F8FBFF36F8FFEE7502080F31188BFF302
:104D10004F8FBFF36F8FFEE7E162A269002A02DBCB
:104D2000C1F10701A161144E00EB8000616906EB3F
:104D3000800081421DD1201DFFF792FE012150B954
:104D4000E06A00EB800256F8222022B9AA6901FA33
:104D500000F08243AA61E06AAA6981401143A96117
:104D600000EB800006EB8000211DBDE87040FFF7DE
:104D7000BBBE70BD2C000020E806002010B586B038
:104D80000024039405AA04A903A80494FFF77CFE59
:104D9000DDE903010094CDE9011000230EA11048C4
:104DA000059A00F068FB0F490028486311D0502095
:104DB00080F31188BFF34F8FBFF36F8F4FF0FF3039
:104DC00008630120C8614C6106B0BDE8104000F0E6
:104DD00041B806B010BD000049444C450000000039
:104DE000954600082C0000200248816B491C816315
:104DF000704700002C0000201448816B11B1012184
:104E000041627047002141628169B1FA81F1C1F1CB
:104E10001F0101EB81020E4951F822306BB101EB09
:104E2000820101F108034A6852684A609A4201D13E
:104E300052684A60D16801607047502080F3118841
:104E4000BFF34F8FBFF36F8FFEE700002C000020F1
:104E5000E80600201CB5264908780190FF2008705C
:104E600008788DF800009DF800009DF8002000F003
:104E7000F000904207D0502080F31188BFF34F8F8D
:104E8000BFF36F8FFEE79DF800001A4B00F0500053
:104E900018700720986005E09DF8002052008DF8FA
:104EA0000020401E9DF800201206F5D498600328CB
:104EB00007D0502080F31188BFF34F8FBFF36F8F5F
:104EC000FEE74FF440709860019808700A48016846
:104ED00041F470010160016841F070410160FFF729
:104EE00071FE00205860FBF71DF900201CBD00007A
:104EF00000E400E08000002020ED00E0F8B5174657
:104F00000E46050014D0DEB105FB06F04830FFF771
:104F1000D1FC04000AD0002084F8460004F14802C5
:104F20003B46314628460094FFF7E4FB2046F8BD97
:104F3000502080F31188BFF34F8FBFF36F8FFEE7D0
:104F40000020E3E738B5049D18B153B1CAB181B16F
:104F500020E0502080F31188BFF34F8FBFF36F8F95
:104F6000FEE7502080F31188BFF34F8FBFF36F8FA0
:104F7000FEE7502080F31188BFF34F8FBFF36F8F90
:104F8000FEE739B1502080F31188BFF34F8FBFF394
:104F90006F8FFEE748241C46012384F846302B46D9
:104FA0000094FFF7A7FB204638BD000070B50D4602
:104FB000040025D0FFF7A4FDD4E90F20216802FBEF
:104FC000001161600021A1632168A1600A46D4E953
:104FD0000F01401E00FB0121E16021464FF0FF3030
:104FE00001F8440F487004F110008DB1FFF756FD31
:104FF00004F12400FFF752FDFFF7A2FD012070BD70
:10500000502080F31188BFF34F8FBFF36F8FFEE7FF
:1050100021690029F0D000F061FB0028ECD00449A0
:105020004FF080500860BFF34F8FBFF36F8FE3E7FF
:1050300004ED00E02DE9FF4782B01D468A464FF09F
:105040000008040003D0BAF1000F08D011E050208E
:1050500080F31188BFF34F8FBFF36F8FFEE7206C93
:1050600038B1502080F31188BFF34F8FBFF36F8F9B
:10507000FEE7022D0AD1E06B012807D0502080F313
:105080001188BFF34F8FBFF36F8FFEE700F01EFA5A
:105090003F4F4FF000094FF0805648B9049838B19F
:1050A000502080F31188BFF34F8FBFF36F8FFEE75F
:1050B000FFF726FDA06BE16B884207D3022D05D0D8
:1050C0000498D0B1B8F1000F1AD01EE02A4651461C
:1050D0002046FFF769FA616A19B104F1240000F073
:1050E000FDFA20B13E60BFF34F8FBFF36F8FFFF724
:1050F00027FD012006B0BDE8F087FFF721FD22E083
:105100006846FFF7C1FD4FF00108FFF719FDFFF7F3
:105110006BFEFFF7F5FC94F94400401C01D184F8C4
:10512000449094F94500401C01D184F84590FFF764
:1051300007FD04A9684600F037F930B12046FFF7B3
:1051400083FB00F005FB0020D4E7FFF7D9FCA06B40
:10515000E16B884213D1FFF7F3FC04F110000499CE
:10516000FFF7A0FD2046FFF76FFB00F0F1FA0028E3
:105170009ED13E60BFF34F8FBFF36F8F98E7FFF76D
:10518000DFFC2046FFF760FB00F0E2FA90E700004A
:1051900004ED00E070B50E46040009D0206C78B133
:1051A000502080F31188BFF34F8FBFF36F8FFEE75E
:1051B000502080F31188BFF34F8FBFF36F8FFEE74E
:1051C000206848B9606838B1502080F31188BFF377
:1051D0004F8FBFF36F8FFEE7FFF706FD5020EFF311
:1051E000118580F31188BFF34F8FBFF36F8FA16BD1
:1051F000E06B884218D994F94500491CA163411C11
:1052000004D0401C84F8450001200EE0606A0028AC
:10521000FAD004F1240000F061FA0028F4D0002E46
:10522000F2D001203060EFE7002085F3118870BDD7
:105230002DE9F343002683B00400354609D0206CE5
:1052400078B1502080F31188BFF34F8FBFF36F8F79
:10525000FEE7502080F31188BFF34F8FBFF36F8FAD
:10526000FEE700F033F9DFF83C814FF000094FF022
:10527000805748B9049838B1502080F31188BFF3A3
:105280004F8FBFF36F8FFEE7FFF73AFCA06BC8B1FB
:10529000401EA063206810B9FFF778FB60602069AA
:1052A00050B104F1100000F019FA28B1C8F80070EC
:1052B000BFF34F8FBFF36F8FFFF742FC012005B0A4
:1052C000BDE8F083049808B166B10FE03DB150200D
:1052D00080F31188BFF34F8FBFF36F8FFEE7FFF7A7
:1052E0002FFC5DE06846FFF7CFFC0126FFF728FCA6
:1052F000FFF77AFDFFF704FC94F94400401C01D14C
:1053000084F8449094F94500401C01D184F84590FC
:10531000FFF716FC04A9684600F046F8002820466E
:1053200012D0FFF791FA00F013FA2046FFF75AFA6D
:105330000028A9D09DB3FFF7E3FB606A50B3206B50
:105340000068C0F1070126E0FFF74CFAE0B12068E1
:1053500038B9FFF7D5FB606800F076F90546FFF72E
:10536000EFFB04F124000499FFF79CFC2046FFF7B3
:105370006BFA00F0EDF9002886D1C8F80070BFF391
:105380004F8FBFF36F8F7FE72046FFF75DFA00F086
:10539000DFF979E700216068FFF79CFC9FE7FFE7F2
:1053A00000208CE704ED00E02DE9F0410C460500FB
:1053B00011D0C4B1FFF7A4FB174B5A696E6820687F
:1053C000911B471C17D02F689B6A9F4219D09642A9
:1053D00017D8012410E0502080F31188BFF34F8FBD
:1053E000BFF36F8FFEE7502080F31188BFF34F8F1C
:1053F000BFF36F8FFEE70024FFF7A2FB2046BDE856
:10540000F081884205D9401A20602846FFF73CFC0D
:10541000F1E700202060DCE72C0000202DE9FF5F91
:105420008346DDE90E87994616468A469000FFF7C7
:1054300041FA05001CD05420FFF73CFA040014D0B8
:105440000020256384F85100CDE90240CDE90087B2
:105450004B46324651465846FFF757F92046FFF76C
:105460003BF8012004B0BDE8F09F2846FFF77CFB25
:105470004FF0FF30F6E7F0B585B0DDE90B640A9D2B
:10548000A6B1DCB1542700972663022684F8516048
:10549000002604AFCDE90246CDE90057FFF735F904
:1054A0002046FFF719F8049805B0F0BD502080F3AE
:1054B0001188BFF34F8FBFF36F8FFEE7502080F34B
:1054C0001188BFF34F8FBFF36F8FFEE70548C169A7
:1054D00019B1806B18B1002070470120704702207D
:1054E000704700002C0000202DE9F0412E4C0027D1
:1054F000A06B40B1206A401C2062606A00B10127A5
:105500003846BDE8F0816669761C666113D1606833
:10551000006838B1502080F31188BFF34F8FBFF37C
:105520006F8FFEE76068A1686160A060A06A401CA0
:10553000A062FFF765F9206BDFF87080864209D31F
:105540006068006880B16068C068C5686868864245
:105550000DD220632068C06A00EB800158F821005A
:105560000128CAD90127C8E74FF0FF30F1E7281D0D
:10557000FFF776FAA86A18B105F11800FFF770FA7C
:10558000E86A0121A26981401143A16100EB800119
:1055900008EB8100291DFFF7A7FAE86A2168C96AAC
:1055A0008842CDD30127CBE72C000020E80600205D
:1055B00070B504004FF0000140D0214D28688442AE
:1055C00007D0502080F31188BFF34F8FBFF36F8F48
:1055D000FEE7A06C38B1401EA064636CE26A9A4298
:1055E0002CD040B12AE0502080F31188BFF34F8FB8
:1055F000BFF36F8FFEE7201DFFF732FA114A01213A
:1056000050B9E06A00EB800352F8233023B9AB694C
:1056100001FA00F08343AB61606CE062C0F1070007
:10562000A061E06AAB6981401943A96100EB800089
:1056300002EB8000211DFFF757FA0121084670BDDB
:105640002C000020E806002070B504004FF0000098
:1056500038D0204DE16A2A68D26A914233D2A069DB
:10566000002804DB2868C06AC0F10700A0611A4E58
:1056700001EB8101606906EB810188421ED1201D8A
:10568000FFF7EEF9012150B9E06A00EB800256F80D
:10569000222022B9AA6901FA00F08243AA6128688F
:1056A000C06AE062AA6981401143A96100EB8000F1
:1056B00006EB8000211DFFF717FA02E02868C06A98
:1056C000E062012070BD616C2A68D26A9142F8D311
:1056D00070BD00002C000020E80600202DE9F041FC
:1056E000C068C468ACB104F118000746FFF7B8F908
:1056F000154DA86B0126A0B139461448FFF7F4F9FF
:10570000E06A2968C96A88421CD901206E62BDE836
:10571000F081502080F31188BFF34F8FBFF36F8F5C
:10572000FEE7201DFFF79CF9E16AAA6906FA01F07D
:105730001043A86101EB81000449B43901EB8000FA
:10574000211DDBE70020E2E72C0000209C07002061
:105750002DE9F0472C4D00242746A86B38B1FFF700
:10576000CFF9A86B401EA863A86B40B146E050205B
:1057700080F31188BFF34F8FBFF36F8FFEE7296966
:10578000224E0120D1B3A6F1B40980463068E8B1B9
:10579000F068C46804F11800FFF762F9201DFFF7F4
:1057A0005FF9E06AAA6908FA00F11143A96100EB08
:1057B000800109EB8100211DFFF796F9E06A296855
:1057C000C96A8842E2D3C5F82480DFE70CB1FFF74D
:1057D00017F82C6A44B14646FFF786FE00B16E62A8
:1057E000641EF9D100202862686A38B1084901278F
:1057F00038070860BFF34F8FBFF36F8FFFF7A0F933
:105800003846BDE8F08700002C0000209C070020EF
:1058100004ED00E0CC5800087D33000800000000D3
:1058200000000000800000000000000000000000F8
:10583000B458000821430008FEFF000000000000EB
:10584000800000000000000000000000C0580008B8
:1058500019430008FEFF0000000000008000000067
:105860000000000000000000A8580008154A0008C9
:10587000FEFF00000000000000010000000000002A
:10588000000000006C65645F7461736B00000000D1
:1058900000000000000102030406070809000000E0
:1058A00000010203040000005553415254315F547B
:1058B00041534B004C45445F5441534B00000000A2
:1058C0004B45595F5441534B0000000064656661CD
:1058D000756C745461736B00F85800080000002068
:1058E00090000000743900088859000890000020DA
:1058F0004833000084390008000000000000000068
:105900000000000000000000000000000000010096
:105910000000000001000000100000000000000076
:105920000024F4000000000000000000000000005F
:105930000000000000000000000000000000000067
:105940000000000000000000000000000000000057
:105950000000000000000000000000000000000047
:105960000000000000000000000000000000000037
:10597000000000000000000000000000AAAAAAAA7F
:0859800000000000000000001F
:04000005080000ED02
:00000001FF
