:020000040800F2
:10000000C03D0020990100088F3600082D27000808
:100010008D360008A7070008054000080000000012
:1000200000000000000000000000000001010008C6
:10003000F70700080000000045010008B53A000875
:10004000B3010008B3010008B3010008B3010008C0
:10005000B3010008B3010008B3010008B3010008B0
:10006000B3010008B3010008B3010008A9070008A4
:10007000B3010008B3010008B5070008C107000874
:10008000B3010008B301000845070008B3010008E8
:10009000B3010008B3010008B3010008B301000870
:1000A000B3010008B3010008B3010008B301000860
:1000B0005D3B0008B3010008B30100083D270008BC
:1000C000312700085527000849270008B301000818
:1000D000B3010008613F0008793F0008B301000840
:1000E000F9070008B3010008B3010008DFF80CD0DD
:1000F00000F098FA00480047154D0008C03D002068
:10010000224B19680868B0E8F00F80F30988BFF344
:100110006F8F4FF0000080F311884EF00D0E704786
:100120000000000006480068006880F3088862B696
:1001300061B6BFF34F8FBFF36F8F00DF00BF00BF0B
:1001400008ED00E0EFF30980BFF36F8F0F4B1A68E3
:1001500020E9F00F106008B54FF0500080F31188CF
:10016000BFF34F8FBFF36F8F05F044FF4FF00000D8
:1001700080F31188BDE8084019680868B0E8F00FFE
:1001800080F30988BFF36F8F704700BF30000020F5
:10019000EFF3058070470000064880470648004797
:1001A000FEE7FEE7FEE7FEE7FEE7FEE7FEE7FEE727
:1001B000FEE7FEE7593B0008ED000008202A04DBBB
:1001C000203A21FA02F00021704721FA02F3D040D0
:1001D000C2F12002914008431946704740EA0103EA
:1001E0009B0703D009E008C9121F08C0042AFAD2ED
:1001F00003E011F8013B00F8013B521EF9D27047B1
:10020000D2B201E000F8012B491EFBD27047002258
:10021000F6E710B513460A4604461946FFF7F0FF05
:10022000204610BD30B50B46014600202022012497
:1002300009E021FA02F59D4205D303FA02F5491BB4
:1002400004FA02F52844151EA2F10102F1DC30BDCA
:100250002DE9F05F0546002092469B4688460646FB
:10026000814640241BE02846414647462246FFF788
:10027000A5FF53465A46C01A914110D3114618465D
:10028000224600F0E1F92D1A67EB01084F4622469D
:100290000120002100F0D8F917EB00094E41201E83
:1002A000A4F10104DFDC484631462A464346BDE856
:1002B000F09F2DE9FE4F804681EA0300C00F0C46F7
:1002C000009021F0004123F00045B8EB0200A94165
:1002D00005D24046214690461C460B46024623F076
:1002E0000040104347D0270DC7F30A00C3F30A515B
:1002F0000290401A019040286BDAC3F3130040F4D7
:10030000801B0098924620B10023D2EB030A63EBD6
:100310000B0B01985946C0F14002504600F094F989
:1003200006460D4650465946019A00F09CF910EBDE
:1003300008006141002487EA115284EAE7731A43F6
:1003400040D0009A62B3019A012A4FEA075215DCA5
:10035000001B61EB02014FF0004202EA0752CDE9B7
:100360000042001C41F5801132462B4600F09CF9FA
:1003700003B0BDE8F08F40462146F9E7001B61EB72
:100380000201001C41F5801300185B412018A2F502
:10039000001747EB030140EAD570B6196D4111E033
:1003A0006D084FEA360645EAC0754FEA0752001B52
:1003B00061EB0201001C41F5801149084FEA300051
:1003C0000019514132462B4603B0BDE8F04F00F012
:1003D0005CB90098012240000023D0EB020263EBDD
:1003E000E073009821464FEAE074B8EB000061EB3F
:1003F0000401E9E783F000435BE781F0004158E73F
:100400002DE9FE4F81EA030404F0004421F000418D
:1004100000944FF0000B23F0004350EA01045ED03B
:1004200052EA03045BD0C3F30A54C1F30A552C44C7
:10043000A4F2F3340194A0FB0254C1F3130141F47C
:100440008011C3F3130343F4801301FB024400FB48
:10045000034E840A970A44EA815447EA8357A4FB6F
:10046000076802958D0A05FB07854FEA932C04FB6C
:100470000C542705029D4FEA065847EA1637B5EB9C
:1004800008056EEB070C870E920E47EA811742EAC9
:100490008312A7FB0201B6EB0B0164EB00042B0DEA
:1004A00043EA0C335E1844EB1C50DA465146E7FB36
:1004B0000201C5F313044FEA0B3343EA14534FEA26
:1004C0000432019C43EA0603A4F10C040294009C4C
:1004D000CDE900B400F0E8F803B0BDE8F08F0020EB
:1004E0000146F9E72DE9F04D81EA030404F0004BE1
:1004F00021F0004514464FF0000A23F0004150EA75
:10050000050220D054EA01021DD0C5F30A57024665
:10051000C5F31303C1F31300C1F30A5640F4801569
:1005200043F48013A7EB0608101BD64608F2FD38EB
:1005300073EB050002D308F1010801E092185B415A
:10054000B8F1000F03DA00200146BDE8F08D00206D
:100550004FF48011064684460EE0171B73EB050727
:1005600005D3121B63EB050306434CEA010C490853
:100570004FEA300092185B4150EA0107EDD152EA90
:10058000030012D082EA040083EA0501084305D083
:10059000101BAB4106D20122002306E000224FF0DF
:1005A000004302E06FF0010253101AEB06004CEB1F
:1005B000085110EB0A0041EB0B01BDE8F04D00F0D3
:1005C00064B8C1F30A52C1F3130140F2FF3341F49E
:1005D00080119A4202DA00200146704740F233430C
:1005E0009A42A2F2334202DC5242FFF7E7BD00F02A
:1005F0002BB8000030B5041E71F1000404DB4FF08D
:100600000044404264EB0101141E73F1000405DB59
:100610001C464FF00043524263EB0403994208BF6B
:10062000904230BD064C074D06E0E06840F0010303
:1006300094E8070098471034AC42F6D3FFF75AFD10
:100640002077000840770008202A04DB203A00FACF
:1006500002F1002070479140C2F1200320FA03F319
:10066000194390407047202A06DBCB17203A41FA05
:1006700002F043EAE07306E041FA02F3D040C2F12F
:100680002002914008431946704710B5141E73F1BB
:10069000000408DA401C41F1000192185B411A4342
:1006A00001D120F0010010BD2DE9F04D92469B468E
:1006B00011B1B1FA81F202E0B0FA80F22032904634
:1006C000FFF7C2FF04460F4640EA0A0041EA0B0169
:1006D00053465A46084313D0114653EA010019D035
:1006E000C8F140025046FFF769FD05460E465046E8
:1006F00059464246FFF7A8FF084305D0012004E011
:1007000020463946BDE8F08D0020054346EAE076F4
:100710002C4337430A986305E40AA0EB0800002243
:10072000FD0A44EA47540A3002D500200146E9E7B1
:10073000010510196941DDE9084500196941BDE865
:10074000F04DA2E7014800F0E8B80000AC0000203E
:1007500070B5044600688168C943C90717D181682C
:1007600021F00101816000F0BFFC05460AE000BFF6
:1007700000F0BAFC401B022804D920688068C043FE
:10078000C00706D020688068C043C007F0D00020B2
:1007900070BDA06A40F01000A062E06A40F0010065
:1007A000E062012070BDFEE7014800F07DBA000064
:1007B000DC000020014800F077BA0000940200201D
:1007C000014800F071BA00005002002030B590F8E6
:1007D00040500124AC40C56B6C60046863604368A2
:1007E000102B036803D099600068C26030BD9A6026
:1007F0000068C16030BD704710B54FF4005000F084
:1008000065FB4FF4804000F061FBBDE810404FF401
:10081000004000F05BBB72B6FEE77047F8B50024FD
:10082000009490F824202546012A12D0012280F855
:1008300024204A681F23072A0DD20668776B521EB0
:1008400002EB820293409F430B6893401F43776300
:1008500019E00220F8BD06680D2A0AD2376BD21FB4
:1008600002EB820293409F430B6893401F43376320
:1008700009E0F76A0D3A02EB820293409F430B684E
:1008800093401F43F7620A68072306680A2A0AD3BF
:10089000F7680A3A02EB420293409F438B68934009
:1008A0001F43F76008E0376902EB420293409F4321
:1008B0008B6893401F4337610A68102A01D0112AC0
:1008C00020D1124B02689A4217D193681B0219D4A7
:1008D000936843F4000393600968102912D10C490E
:1008E0000C4A0968B1FBF2F101EB8101490000E01B
:1008F000491E00910029FBD104E0816A41F02001EA
:100900008162012480F824502046F8BD0024014073
:100910002C00002040420F00704710B504460068CC
:100920004168890626D50168890723D5A16AC906C9
:1009300003D4A16A41F40071A1628168C1F342410C
:10094000072910D1217B71B9416821F02001416054
:10095000A06A20F48070A062A06AC00403D4A06AD8
:1009600040F00100A0622046FFF7D6FF21686FF03B
:10097000120008602068416809062ED50168490701
:100980002BD5A16AC90603D4A16A41F40051A16222
:100990008168C1F30231072909D04168490515D49E
:1009A0008168C1F34241072910D1217B71B94168A7
:1009B00021F080014160A06A20F48050A062A06A0A
:1009C000C00503D4A06A40F00100A0622046FFF7F2
:1009D00024FF21686FF00C00086020684168490618
:1009E0000DD50068C0070AD0A06A40F48030A0622C
:1009F000204600F093F821686FF00100086010BDF8
:100A00002DE9F0414FF0000704003D467ED0A06A7A
:100A1000002628B9E66284F82460204600F080F8B9
:100A20002046FFF795FEA16AC90600D420B1A06A4E
:100A300040F01000A06269E0A16A21F4885141F001
:100A40000201A1626268E169237B0A4347EA43012C
:100A50000A43A1684FF48077B94209D0012907D031
:100A60005FF0000194F814C0BCF1010F02D00AE05D
:100A70003946F7E7F3B1A36A43F02003A362E36AC0
:100A800043F00103E3622368D3F804C02CF4694CFB
:100A90004CEA010CC3F804C021688B68DFF870C011
:100AA00003EA0C0313438B60A168B9420BD0012900
:100AB00009D00CE0DFF85CC0A3690CEB43330B43B7
:100AC00043F40061DFE7218A0D05A5F58015216853
:100AD000CB6A23F470032B43CB62216889680E4BE9
:100AE0001940914208D1E662A16A21F0020141F069
:100AF0000101A162BDE8F081A06A20F0020040F08F
:100B00001000A062E06A40F00100E0620120F1E71D
:100B1000FDF7E1FF00E0FFFFFE0E1FFF7047000042
:100B200070B586B00025064600950195029503959F
:100B300000681E49884236D11D49886940F400701A
:100B40008861886900F400700490886940F00400AE
:100B500088618869694600F00400049002200090D2
:100B600003200190134800F0BDF9144C1248C4E969
:100B700000058020C4E9025080002061800060618F
:100B80002020C4E90605204600F038F908B1FFF737
:100B900042FE3462002205211220666200F07CFED3
:100BA000122000F06BFE06B070BD00000024014072
:100BB000001002400008014008000240DC00002054
:100BC00010B590F821100022022905D0042181637C
:100BD00080F82020012010BD01680B6823F00E036F
:100BE0000B6001680B6823F001030B6090F8403044
:100BF000C46B012101FA03F3636080F8211080F8CF
:100C00002020104610BD000010B590F821100024DF
:100C1000022903D00421816301243DE001680A68B0
:100C200022F00E020A6001680A6822F001020A60DE
:100C30001A4A0168914201D1012121E0174A143278
:100C4000914201D110211BE0144A2832914201D176
:100C5000891515E0114A3C32914201D189140FE007
:100C60000E4A5032914202D14FF4803108E00B4AD3
:100C70006432914202D14FF4801101E04FF0807153
:100C8000064A083A5160012180F82110002180F8BD
:100C90002010416B01B18847204610BD080002407A
:100CA00090F82100704700002DE9F05FC16B0C68DF
:100CB00001680B68D0F840C0042202FA0CF2494DDA
:100CC000DFF824A1494E4A4FDFF828B1DFF828E1C8
:100CD00022422CD05A072AD50A68920603D40A6801
:100CE00022F004020A600168A94201D1042219E03D
:100CF000514501D1402215E0B14202D14FF480624A
:100D000010E0B94202D14FF480420BE0594502D1C4
:100D10004FF4802206E0714502D14FF4800201E0D9
:100D20004FF080622F4908394A60C16A3BE04FF0BA
:100D3000020808FA0CF818EA040F4FF000094FF007
:100D4000010235D05FEA837832D50B689B0605D463
:100D50000B6823F00A030B6080F821200168A94288
:100D600001D1022219E0514501D1202215E0B14202
:100D700002D14FF4007210E0B94202D14FF4005298
:100D80000BE0594502D14FF4003206E0714502D123
:100D90004FF4001201E04FF00072124908394A6026
:100DA00080F82090816A00291AD0BDE8F05F0847DA
:100DB000082505FA0CF5254212D01B0710D50B6843
:100DC00023F00E030B6090F84010C36B02FA01F1A0
:100DD0005960826380F8212080F82090016BE2E75F
:100DE000BDE8F09F080002401C00024030000240B5
:100DF00044000240580002406C00024030B528B365
:100E000008C8134914221944B1FBF2F18900C163E7
:100E100010498163022141771A6843F6F0718A43D1
:100E2000D0E900142143D0E902452C432143046951
:100E300021434469214384692143114319600021FE
:100E40004163012242770177084630BD012030BD61
:100E5000F8FFFDBF0000024070B5044690F8200086
:100E6000002501280CD0012084F8200094F821608E
:100E70000020012E06D084F820000225284670BDEF
:100E8000022070BD022684F82160A06320680668F5
:100E900026F0010606602046FFF798FCE06A00286D
:100EA0002068016802D041F00E0106E021F0040143
:100EB00001602068016841F00A0101602068016852
:100EC00041F001010160D9E770470000044910B505
:100ED0000A68024202D00860FFF7F6FF10BD00006A
:100EE000140401402DE9F84FDFF8B891002409F10E
:100EF000040A0AF1040B23460F270BF1040EC9E084
:100F00000125A5402A40AA427DD1674ED1F804C0F0
:100F1000ACEB0608B44532D014DCBCF1030F3AD078
:100F200009DCBCF1000F2AD0BCF1010F1CD0BCF1D0
:100F3000020F31D11DE0BCF1110F17D0BCF1120F1F
:100F40002AD119E0B8F5881F19D006DCB8F5803F22
:100F500015D0B8F5801F1FD111E0B8F5001F0ED0D5
:100F6000B8F5041F18D10AE0CB6815E0CB681B1D4B
:100F700012E0CB6808330FE0CB680C330CE08B68D1
:100F80002BB1012B4FF0080303D0456104E004238B
:100F900002E0056100E00023FF2A01D8064601E0D7
:100FA00000F104064FEA840501D9A5F12005D6F821
:100FB000008007FA05FC28EA0C0803FA05F548EA60
:100FC0000508C6F800804D68ED0062D5374DAE6962
:100FD00046F00106AE61AD6924F0030605F0010597
:100FE0000095334D06EB050CDCF80850A607360FCC
:100FF00007FA06F825EA0805DFF8B880404503D16E
:101000004FF0000817E044E0DFF8AC80404502D123
:101010004FF001080FE0DFF8A480404502D14FF007
:10102000020808E0DFF89880404502D14FF003083D
:1010300001E04FF0040808FA06F848EA0508CCF881
:1010400008804D68D9F80060ED034D4601D5164380
:1010500000E096432E604D68DAF80060AD03554617
:1010600001D5164300E096432E604D68DBF8006022
:10107000ED025D4601D5164300E096432E604D68B3
:10108000DEF80060AD02754601D5164300E09643D8
:101090002E60641C0D682A46E5407FF431AFBDE840
:1010A000F88F000000040140000011100010024001
:1010B0000000014000080140000C01400010014008
:1010C000001401408068084000D001207047C268C9
:1010D00021EA02030A4043EA0241016170470AB172
:1010E000016170470904FBE7014880687047000010
:1010F00020000020704770472DE9F0410168044648
:101100004A694E6890F83E000025D743FA050BD493
:10111000F243D20508D46FF4807201254A61216838
:101120000A6842F400420A60B90508D4F143C905CF
:1011300005D422686FF4007145F00205516179050C
:1011400025D4F143C90522D4638D94F83D10226B58
:10115000202808D13BB9212910D029290ED02829CF
:1011600001D1212A0AD022686FF48061516145F0D3
:101170000405102806D0402804D008E0204601F0DD
:1011800045FF04E02068016841F400710160380502
:1011900008D4F043C00505D421686FF4006045F021
:1011A00008054861002D07D0206C284320642046A4
:1011B000BDE8F04101F032BBBDE8F0812DE9F04718
:1011C000026800215368C66A90F83E4090F83D508E
:1011D000102C12D0402C10D0046C002C7DD05469FF
:1011E000E443A6077AD4DE43B60577D4036C03B193
:1011F0009169BDE8F04701F0E5BE976951694FF488
:101200002A0CC9435FEAC1784FF02A4904D06645E9
:101210002AD04E4528D010E0DE43B6050DD4C16A71
:10122000614501D1012103E0C16A494501D108218D
:10123000C162BDE8F04701F0DBBD0E0716D4DE4306
:10124000B60513D4416CC9B21161416B09B1896A09
:1012500029B9816B002907D0896A002904D0006868
:10126000416841F400614160BDE8F0878E0706D413
:10127000DE43B60503D4BDE8F04701F00DBDFE43E3
:10128000526876074FEA02521DD4002AECDB0A06A8
:1012900008D4DA43520505D4490705D5BDE8F0471F
:1012A00001F09EBC4907DFD4D9438905DCD4212D48
:1012B00005D0402CD8D1BDE8F04701F0DFBDBDE836
:1012C000F04701F04BBC002ACEDB4A060BD4DA43D0
:1012D000520508D4490708D501E00DE00EE0BDE84D
:1012E000F04701F0C7BB4907BED4D9438905BBD439
:1012F000BDE8F04701F055BB916970E7E10606D4FF
:10130000D943890503D4BDE8F04701F0C1BE2821C7
:10131000212D27D0292D25D0650655D4DD436D0517
:1013200052D4640752D590F83D30448D002C9BD0A8
:101330001269446A2270426A521C4262428D521EF5
:101340004285428D002A8FD12A2B8DD102685368A5
:1013500023F4806353602222026380F83D1000F082
:1013600013FA81E7250623D4DD436D0520D46407F5
:1013700020D590F83D30448D002CF2D0446A24787A
:101380001461426A521C4262428D521E4285428D55
:10139000002AE6D1292BE4D10268536823F4806344
:1013A00053602122026380F83D1000F0EEF95BE704
:1013B0006107D6D4D9438905D3D4418D0029D0D033
:1013C000416A097811610AE06107CAD4D9438905E5
:1013D000C7D4418D0029C4D01169426A1170416A95
:1013E000491C4162418D491E41853DE7704700001F
:1013F00070B5040025D094F83D00002520B984F88C
:101400003C50204600F056F9242084F83D00206826
:10141000016821F0010101602068016841F4004188
:1014200001602068016821F40041016000F098FB30
:101430004D4A6168914201D84C4900E04C498842CC
:1014400001D2012070BD4B492368B0FBF1F15E6809
:1014500026F03F060E435E606368934206D94FF460
:10146000967359434FF47A73B1FBF3F12368491C27
:101470001E6A26F03F06314319626168914210D816
:101480004900401EB0FBF1F2521CC2F30B02042AC9
:1014900001D2042022E0B0FBF1F0401CC0F30B00AD
:1014A0001CE0A268F2B301EBC10303EB0116431E7B
:1014B000B3FBF6F35B1C43F480431B0549D092B3A6
:1014C00001EBC10202EB0111401EB0FBF1F0401C28
:1014D000C0F30B0040F4804040F400402168CA692A
:1014E0004CF6FF739A431043C861D4E907100143D7
:1014F0002068026822F0C00211430160D4E90301B0
:1015000001432068826848F2FF339A4311438160A7
:10151000D4E9050108432168CA6822F0FF0210439C
:10152000C86001E00EE016E02068016841F00101AA
:1015300001602564202084F83D00256384F83E5036
:10154000002070BD01EB4106431EB3FBF6F35B1CAC
:10155000B3E70120C2E701EB4101401EB0FBF1F00F
:10156000401CC0F30B00B7E7A086010080841E007A
:1015700000093D0040420F007047704770477047B8
:10158000704700002DE9FF4F83B09A46DDE91197BF
:1015900093460446DDF84080FFF7A6FD054694F823
:1015A0003D0020287FD11923012240492046009583
:1015B00001F042FE002876D194F83C00012872D058
:1015C000012084F83C0020680168C90703D1016844
:1015D00041F0010101602068016821F400610160AF
:1015E000212084F83D00402084F83E000026266437
:1015F000C4F82480A4F82A90608D20852C48E062ED
:10160000CDE9007553465A462046049901F086FC00
:1016100070B930E02A463946204601F08CFE58B1B8
:10162000206C042804D12068016841F40071016035
:10163000012007B0BDE8F08F606A2168007808617A
:10164000606A401C6062218D491E89B22185628DCD
:10165000521E628522685369DB435B070BD469B174
:1016600000781061606A401C6062208D401E2085F9
:10167000608D401E6085208D0028CBD12A463946DA
:10168000204601F0B3FD0028CAD154F83D0B016893
:1016900041F400710160202004F81E09E6776677A6
:1016A0000020C6E7FFE70220C3E7000002001000A9
:1016B0000000FFFF30B585B000210091019102913B
:1016C00003912D4D03682D4C122103222C48AB426F
:1016D00025D1A36943F00803A361A369039203F032
:1016E00008030493C023CDE900316946FFF7FAFBF4
:1016F000E06940F40010E061E069002200F40010AD
:10170000049005211F2000F0C7F81F2000F0B6F854
:1017100000220521202000F0BFF8202028E0194DEC
:10172000AB4227D1A36943F00803A361A3690392E5
:1017300003F0080304934FF44063CDE90031694698
:10174000FFF7D0FBE06940F48000E061E06900222F
:1017500000F4800004900521212000F09DF8212054
:1017600000F08CF800220521222000F095F82220BC
:1017700000F084F805B030BD005400400010024075
:10178000000C0140005800407047704702488168D3
:10179000027811448160704720000020074810B58E
:1017A000016841F010010160032000F095F800206D
:1017B00000F006F800F03EF8002010BD00200240C6
:1017C00000B5014687B000221C2000F065F81C20FF
:1017D00000F054F81448C16941F00101C161C069C9
:1017E00005A900F001000690684600F093F900F0AA
:1017F000B7F90E494000B0FBF1F10D484FF08042BF
:10180000491E0260416040F2E7320021C0E9032135
:10181000816000F08DFB10B1012007B000BD0448CD
:1018200000F0B4FBF9E700000010024040420F0056
:10183000D80200200F4808B5816941F0010181619B
:10184000816901F001010091C16941F08051C161DC
:10185000C069002200F0805000900F21901E00F01F
:101860001BF80548416821F0E06141F000714160DA
:1018700008BD00000010024000000140002809DB04
:1018800000F01F02012191404009800000F1E0209A
:10189000C0F8001170470000F0B40E4B1B680C46F6
:1018A000C3F30223C3F10705042D00D90425191D34
:1018B000072901D2002300E0DB1E012606FA05F10C
:1018C000491E214099409E40761E16403143F0BC8F
:1018D00002F0AABB0CED00E0064900F00702086820
:1018E0004FF6FF03184040EA0220034A1043086005
:1018F000704700000CED00E00000FA052DE9F84308
:1019000005460078354CC00754D0E0690026C00079
:1019100008D4E06940F08050E061E069012600F001
:10192000805000902E480168C90512D40168804695
:1019300041F480710160FFF7D7FB074605E000BF67
:10194000FFF7D2FBC01B642823D8D8F80000C005DD
:10195000F6D5206A10F4407021D0A98801F44071B6
:1019600081421CD0206A1F49012220F440700A6085
:1019700000220A602062C00711D0FFF7B5FB0746BE
:1019800041F2883808E000BFFFF7AEFBC11B4145BC
:1019900002D90320BDE8F883206A8007F4D5206AC5
:1019A000696820F44070084320621EB1E06920F0AD
:1019B0008050E0612878800705D56068A96820F428
:1019C0004040084360602878C00605D56068E96833
:1019D00020F48000084360600020DBE70010024034
:1019E00000700040400442422DE9F0470F460500D8
:1019F00061D0434E306800F00700B84209D2306829
:101A000020F0070038433060306800F00700B8422B
:101A100051D128683B4C810712D5400703D5606837
:101A200040F4E06060602878000703D5606840F407
:101A3000605060606068A96820F0F0000843606052
:101A40002878C00728D06868012810D021680228AB
:101A500010D0890700292EDA616821F003010143C3
:101A60006160FFF741FB804641F288390DE0216853
:101A70008903EFE78901EDE7FFF736FBA0EB0801EB
:101A8000494502D90320BDE8F0876068696800F025
:101A90000C00B0EB810FEFD1306800F00700B842C6
:101AA0000BD9306820F0070038433060306800F010
:101AB0000700B84201D00120E5E72878400705D5A6
:101AC0006068E96820F4E0600843606028780007F7
:101AD00006D56068296920F4605040EAC100606062
:101AE00000F05EF86168084AC1F30311515CC84018
:101AF0000649086006480068FFF762FE0020C2E75A
:101B00000020024000100240AC7600082C000020AB
:101B1000240000200F2202600C4A536803F00303E4
:101B20004360536803F0F0038360536803F4E06399
:101B3000C36052684FF4E06303EAD20202610448D2
:101B4000006800F0070008607047000000100240C5
:101B50000020024001480068704700002C0000206F
:101B60000448054900684968044AC1F30221515CF0
:101B7000C84070472C00002000100240BC760008CE
:101B80000448054900684968044AC1F3C221515C10
:101B9000C84070472C00002000100240BC760008AE
:101BA00012A185B00FC98DE80F0014A0144A006877
:101BB00004905168134801F00C03042B10D0082B3B
:101BC0000ED1C1F38343C9031DF803000AD5516840
:101BD00004AAC1F34041515C0A4A5043B0FBF1F002
:101BE00005B0704708494843FAE7000002030405BE
:101BF000060708090A0B0C0D0E0F10100102000059
:101C00000010024000127A0000093D002DE9F84F53
:101C1000040070D02078C04DC00749D06868C0F378
:101C20008100012807D06868C0F38100022809D12B
:101C30006868C00306D52868800339D56068002825
:101C4000E7D035E06068B0F5803F0BD010B1B0F55B
:101C5000A02F11D0286820F480302860286820F454
:101C6000802002E0286840F480302860606890B1ED
:101C7000FFF73AFA06460AE0286840F48020286018
:101C8000F0E700BFFFF730FA801B642873D828689C
:101C90008003F7D50CE0FFF727FA064605E000BF02
:101CA000FFF722FA801B6428F0D828688003F7D455
:101CB00020789A4E80074FF001094FF0000839D57F
:101CC000686810F00C0F07D06868C0F38100022824
:101CD00009D16868C00306D42868800714D5206934
:101CE000012808D110E02069B0B1C6F80090FFF7D4
:101CF000FBF9074605E00AE1FFF7F6F9C01B0228E9
:101D0000C4D828688007F7D52868616920F0F800F2
:101D100040EAC10028600DE0C6F80080FFF7E4F952
:101D2000074604E0FFF7E0F9C01B022823D8286823
:101D30008007F7D4207800072CD57948A169D9B15C
:101D4000C0F80090FFF7D0F9074604E0FFF7CCF9A0
:101D5000C01B02280FD8686A8007F7D571484FF476
:101D6000FA510068B0FBF1F0009000BF0098411EEE
:101D70000091FAD20EE080E0C0F80080FFF7B4F9DD
:101D8000074604E0FFF7B0F9C01B022875D8686A5F
:101D90008007F7D42078400760D5E8690027C000A5
:101DA00008D4E86940F08050E861E869012700F054
:101DB000805000905C480168C90513D401688346CF
:101DC00041F480710160FFF78FF9824606E000BFA1
:101DD000FFF78AF9A0EB0A0064284ED8DBF8000070
:101DE000C005F5D5E06801280AD008B1052813D050
:101DF000286A20F001002862286A20F0040002E02E
:101E0000286A40F001002862E06841F2883B98B1FE
:101E1000FFF76AF982460BE0286A40F00400286266
:101E2000EEE700BFFFF760F9A0EB0A0159455AD869
:101E3000286A8007F6D50CE0FFF756F9824605E0E0
:101E4000FFF752F9A0EB0A0159454CD8286A8007E0
:101E5000F6D41FB1E86920F08050E861E06988B3EA
:101E60006968C1F38101022944D00228C6F8608064
:101E700004D0FFF739F9044638E034E0FFF734F9CD
:101E8000074604E0FFF730F9C01B02282BD828686A
:101E90008001F7D4206AB0F5803F05D16868A16859
:101EA00020F4003008436860D4E9080108436968F9
:101EB00021F4741108436860C6F86090FFF714F9C4
:101EC000044606E025E000BFFFF70EF9001B0228DC
:101ED00009D828688001F7D51BE000BFFFF704F997
:101EE000001B022802D90320BDE8F88F2868800172
:101EF000F4D40EE00128F7D06868226A00F480313B
:101F0000914204D1616A00F47010884201D001202E
:101F1000EAE70020E8E7000000100240000042422B
:101F2000800442422C00002000700040704770473F
:101F300010B5040003D094F83D0010B107E0012073
:101F400010BD002084F83C00204600F01EF802205E
:101F500084F83D00211D206801F006FE012084F870
:101F6000460084F83E0084F83F0084F8400084F87E
:101F7000410084F8420084F8430084F8440084F867
:101F8000450084F83D00002010BD704790F83D10DA
:101F9000012901D001207047022180F83D1001681D
:101FA000CA6842F00102CA6000680B49884208D042
:101FB000B0F1804F05D00949884202D008498842D3
:101FC00004D1816801F00701062903D0016841F0BE
:101FD0000101016000207047002C01400004004016
:101FE00000080040704770B50446006801694FF072
:101FF0000005C943890715D4C168C943890711D4AD
:10200000E91E016101202077206880698007204651
:1020100002D0FFF7E7FF04E000F098F8204600F058
:1020200096F8257720680169C943490717D4C16824
:10203000C943490713D46FF00401016102202077DE
:102040002068806910F4407F204602D0FFF7CAFF65
:1020500004E000F07BF8204600F079F8257720684E
:102060000169C943090716D4C168C943090712D4D5
:102070006FF008010161042020772068C0698007A3
:10208000204602D0FFF7AEFF04E000F05FF82046E4
:1020900000F05DF8257720680169C943C90617D4A7
:1020A000C168C943C90613D46FF01001016108204B
:1020B00020772068C06910F4407F204602D0FFF7E7
:1020C00091FF04E000F042F8204600F040F8257748
:1020D00020680169C943C90708D1C168C943C90754
:1020E00004D1891E0161204600F032F820680169A0
:1020F000C943090609D4C168C943090605D46FF06C
:10210000800101612046FFF711FF20680169C94382
:10211000490609D4C168C943490605D46FF0400196
:102120000161204600F01BF820680169C943890657
:102130000BD4C168C943890607D46FF0200101613F
:102140002046BDE87040FFF7F2BE70BD7047704793
:102150000068B0F1804F01D1FFF718BB704770479E
:10216000704710B504460068416994F83D20C1F3FA
:10217000C011212A0BD151B1416921F08001416187
:10218000606B08B1FEF71CFD204601F0A2FD20683F
:10219000416994F83E20C1F38011222A0BD151B13C
:1021A000416921F040014161A06B08B1FEF708FDD3
:1021B000204601F076FD002010BD7047F8B502689A
:1021C00004461068D168536910F00F0F4FF00005F6
:1021D00053D003F0010601F4907737435FD0C20774
:1021E00005D0CA0503D5226C42F0010222644207E1
:1021F00005D5DA0703D0226C42F00202226482077E
:1022000005D5DA0703D0226C42F0040222640207EB
:1022100007D501F02002324303D0226C42F00802BD
:102220002264226C002A34D0800604D5880602D5A8
:10223000204601F057FD20684069216CC0F38010F2
:10224000090700D430B3204601F02BFD2068416916
:1022500049061BD5416921F040014161A06BA8B13D
:1022600058494163A06BFEF7CFFC002811D0A06B4A
:10227000416B01B0BDE8F040084783060FD58B06DF
:102280000DD52046BDE8F84001F02CBD2046FFF7F3
:1022900094FFF8BD2046FFF790FF2564F8BD266B3C
:1022A0002023012E52D1C60650D5CE064ED5106839
:1022B00050680090506940062AD5A16B08684068B4
:1022C0000004000CEAD0A68D8642E7D9E085886933
:1022D000202818D0D06820F48070D0602068416930
:1022E00021F0010141612068416921F04001416113
:1022F00084F83E3025632068C16821F01001C16078
:10230000A06BFEF75DFCA08DE18D401A81B219E053
:10231000A08DE18D401A81B2E08D0028BED0002949
:10232000BCD0D06820F49070D0602068426922F060
:102330000102426184F83E3025632068C26822F0C1
:102340001002C2602046FFF70BFFF8BD05062BD533
:102350000D0629D594F83D002128F6D1A068B0F5E6
:10236000805F01D12069B0B1206A411C21622168DF
:1023700000784860E08C401E0004000CE084E4D14A
:102380002068C16821F08001C1602068C16841F007
:102390004001C160F8BD206A0088C0F308005060A9
:1023A000206A801C2062E5E74006F3D54806F1D597
:1023B000D168204621F04001D16084F83D3000F022
:1023C000A1F9F8BDD53B000870B5040004D094F81D
:1023D0003D00002510B106E0012070BD84F83C509E
:1023E000204600F023F8242084F83D002068C168CE
:1023F00021F40051C160204601F0D0FC2068016941
:1024000021F4904101612068416921F02A01416174
:102410002068C16841F40051C1602564202084F81F
:102420003D0084F83E00002070BD00002DE9F04121
:1024300086B0002400940194029403940646444F0D
:102440000368444902200322434DBB4251D18B69AA
:1024500043F480438B618B6903F4804304938B695D
:1024600043F004038B618969039201F00401049134
:102470000102CDE9001069462846FEF733FD281514
:10248000CDE90004694628460294FEF72BFD344D41
:1024900032484FF08008C5E90004C5E902482C61C4
:1024A00087146C61C5E906472846FEF7A7FC08B10A
:1024B000FEF7B1F9B5636E62294D284844351438EA
:1024C00001C51020A5E81101254845F81049443000
:1024D0006C61C5E90647FEF791FC08B1FEF79BF970
:1024E00075630022052125206E62FFF7D5F92520AE
:1024F00028E01C4EB34227D1CB6943F40033CB61B3
:10250000CB6903F4003304938B6943F004038B61BC
:102510008969039201F0040104910421CDE90010BE
:1025200069462846FEF7DEFC0820CDE9000469462E
:1025300028460294FEF7D6FC002209212620FFF748
:10254000ABF92620FFF79AF906B0BDE8F08100004C
:1025500000380140001002400008014058000240CD
:10256000500200200044004090F83E30202B0ED155
:1025700059B152B190F83C30012B08D0012380F8BA
:102580003C300023036301F065BC0120704702204A
:10259000704790F83E30202B0ED159B152B190F8CF
:1025A0003C30012B08D0012380F83C30002303632A
:1025B00001F088BC012070470220704738B50068E0
:1025C000164988420CD1164841880A0408D4154A95
:1025D0004D044FF00004137811D50A2B01D044802C
:1025E00038BD41F4004141800F486946006803F05E
:1025F0006DFF0028F4D10DA001F006FD38BD0D2BB4
:1026000008D0C1F30D05491C89B253554180C72933
:10261000E5D838BD41F48041418038BD00380140E3
:102620001A0000205803002010000020555341528A
:10263000543120676976652073656D6170686F72CB
:1026400065206661696C65640D0A000070470000D2
:102650002DE9F843044690F83D001F4616460D4606
:1026600020284CD1C5B1BEB194F83C00012846D019
:10267000012084F83C004FF00008C4F8408021207D
:1026800084F83D00FEF730FDA6848146E684A0680C
:10269000B0F5805F03D004E00120BDE8F883206935
:1026A00028B12E465FF0000584F83C800EE000263D
:1026B000FAE78021204601F020FCA0B9AEB116F85F
:1026C000010B21684860E08C401EE084E08C4B46A2
:1026D0004FF0000200970028EBD14FF04001204658
:1026E00001F00BFC30B10320D7E735F8020BC0F343
:1026F0000800E6E7202084F83D000020CDE7022016
:10270000CBE700000649884208D10649012008703D
:1027100005480068016821F0010101607047000070
:10272000C80100201A00002094020020FEE70000EB
:102730000148FEF7E1BC0000200100200148FEF73F
:102740003DBD0000200100200148FEF7D5BC00007F
:10275000740100200148FEF731BD00007401002023
:1027600038B5406A002190F83D202B4B46F2A81462
:102770001B68B3FBF4F3C3EBC30303EB83030093C6
:102780003BB15B1E009303681B689B0505D5009B4E
:10279000F6E7036C43F020030364436B03B19962D3
:1027A000836B03B1996203681C6824F480641C6025
:1027B0004185436B03B15963836B03B1596303686C
:1027C0001C6824F001041C6090F83D402023602C1C
:1027D0000BD0282434EA02020FD080F83D3080F874
:1027E0003E1000BFFEF702FE38BD80F83D3080F895
:1027F0003E100164FEF77EFC38BD0268136843F0AA
:10280000010313600268136843F48063136001637B
:1028100080F83D40E6E700002C00002070B504463B
:1028200090F83D0094F83E10102901D0402906D1BF
:10283000222804D121680A6822F400620A60282153
:1028400031EA00024FF000054FF0200626D0216843
:102850004968090505D4602803D084F83D6084F8F0
:102860003E50256320684168090537D5416821F449
:1028700000614160606B3D4990F82120012A11D030
:102880004163606BFEF7C0F938B32068016821F03E
:102890000101016084F83D60606B1CE0256384F8F1
:1028A0003D10DFE7A06B4163A06BFEF7ADF9A0B16F
:1028B00020684169C943490605D40069616A087006
:1028C000606A401C60622068016821F001010160BB
:1028D00084F83D60A06B416B884710E094F83D1090
:1028E000602910D04169C943490605D40069616A6D
:1028F0000870606A401C60622046FEF777FD206C1D
:10290000C1071CD115E084F83D6025644169C943C5
:10291000490605D40069616A0870606A401C6062FB
:102920002068016821F0010101602046FEF7E2FB0A
:10293000E5E7810703D4410701D4000704D52068E7
:10294000416821F4E061416094F83D00216C490741
:102950000BD5282809D10648E062256384F83D603C
:1029600084F83E502046FEF707FE70BD6127000840
:102970000000FFFF01684A69D24352050FD46FF48B
:1029800080624A61002140F8301F20224273817327
:10299000026942F0040202610173012070470020C5
:1029A000704710B5C26A438D0168042B06D0438D71
:1029B000032B08D0438D022B1DD012E04A6822F46D
:1029C00080624A600CE04B6823F480634B60042A09
:1029D00006D0022A04D001680A6822F480620A60E4
:1029E00001680969426A1170416A491C4162418D5E
:1029F000491E418510BD012A30D0102A2ED0042A4C
:102A000030D0022A2ED00A6842F400720A600168AF
:102A10000969426A1170416A491C4162428D521E25
:102A20004285026812690A70416A491C4162418DFF
:102A3000491E418501684A6822F440724A6020219B
:102A400080F83D1090F83E200021402A80F83E108A
:102A50000CD012210163FEF790FD10BD0A6822F42C
:102A60008062D3E70A6842F48062CFE70163FEF731
:102A700086FD10BD38B590F83D10222914D1418D46
:102A8000032912D901680969426A1170416A491C17
:102A90004162418D491E4185418D032904D1006861
:102AA000416821F48061416038BDC26A022AFBD0CE
:102AB000012901D00029F7D1274946F2A8130022A5
:102AC0000968B1FBF3F101EB81010091016820235A
:102AD000009C641E009422D00C68A405F8D40C68F5
:102AE00024F480640C6001684C6824F4E0644C6059
:102AF00001680969446A2170416A491C4162418D3B
:102B0000491E418580F83D3090F83E1080F83E2007
:102B100040291DD012210163FEF72FFD38BD046C42
:102B200044F0200404644C6824F4E0644C600168C0
:102B30000969446A2170416A491C4162418D491EFC
:102B4000418580F83D3080F83E20FEF74FFC38BDCF
:102B50000263FEF714FD38BD2C00002010B5C26AD8
:102B600090F83D1021290BD1418D51B1416A026885
:102B700009781161416A491C4162418D491E4185B4
:102B800010BD20230021082A13D0202A11D012F5CD
:102B9000803F0ED00268546824F4E064546011222F
:102BA000026380F83E1080F83D3000BFFEF7E6FC7F
:102BB00010BD0268546824F4E0645460026814682C
:102BC00044F400741460016380F83D3090F83E20B6
:102BD00080F83E10402AE9D1FEF7D2FC10BD00007B
:102BE00010B590F83D1090F83E30C26A048DB4B133
:102BF000212903D0402B11D122290FD1418DE1B3DE
:102C000090F83E10402942D0416A0268097811616B
:102C1000416A491C4162418D491E418510BD2129EF
:102C2000E8D120230021082A13D0202A11D012F540
:102C3000803F0ED00268546824F4E064546011228E
:102C4000026380F83E1080F83D3000BFFEF796FC2E
:102C500010BD0268546824F4E0645460026814688B
:102C600044F400741460016380F83D3090F83E2015
:102C700080F83E10402AE9D100E002E0FEF780FC37
:102C800010BD0068416821F48061416010BDBDE85D
:102C9000104000F0F3B8000078B590F83E50C26ADA
:102CA000046B90F83D6000230168222E73D1066DFD
:102CB0000EB9402D6FD0056D1DB90569B5F5404FB2
:102CC0001BD0458D95B3468D484D012E20D0448DA7
:102CD000022C4DD00C6844F480640C6001684C6890
:102CE000240579D5AA4273D0012A71D0082A6FD061
:102CF000102A6DD0202A6BD06EE04A698A69009252
:102D00000A6842F480720A60016D491C016578BD51
:102D1000AA4214D10A6822F480620A6001684A68F3
:102D2000120504D50A6822F4806217E0FFE74A69B9
:102D30008A6900920A6842F400720A6050E0082A28
:102D400010D0202A0ED0122C0AD0042A03D0022A36
:102D500001D0102AE6D10A6842F480620A603BE0A2
:102D6000012ADFD00A6822F480620A600168DEE787
:102D7000042A11D0022A0FD0102A0DD00C6844F476
:102D800000640C6001684C698C6900940C6824F440
:102D900080640C6008E025E00C6844F480640C60FA
:102DA00001684C698969009101684C68240517D550
:102DB000AA4207D0012A05D0082A03D0102A01D040
:102DC000202A0DD14A6842F480524A6008E0FFE7A9
:102DD0004A6842F480524A6001684A6989690091F0
:102DE000036578BD48698869009078BD0000FFFFE1
:102DF00090F83E10402910D00169B1F5804F19D0EC
:102E0000016DA9B3016D012910D1416C5FF0F10290
:102E100001F4407142EAD11106E0016D0029416CD4
:102E200005D0C9B241F0010100680161704701F0AD
:102E3000FE01F9E790F83D102129416C09D0C9B293
:102E400041F0010102681161416B29B1896A49B9F8
:102E500002E001F0FE01F5E7816B0029E6D0896A06
:102E60000029E3D00068416841F400614160704787
:102E7000FFE7416CF02201F44071CBE710B590F808
:102E80003D10026D22B3026D012A2FD0026D022A7D
:102E90001DD122292FD0428D0AB1212933D0428D54
:102EA000002A14D1212912D101684A6822F4E06273
:102EB0004A6001680A6842F400720A6000210163F6
:102EC000202280F83D2080F83E10FEF759FB10BD0F
:102ED000C16C0129816C02D0C1F3072108E00268AE
:102EE000C9B21161016D891C016510BD816CC9B247
:102EF0000268116104E001680A6842F480720A60A5
:102F0000016D491CF0E7416A026809781161416A64
:102F1000491C4162418D491E418510BD2DE9F84390
:102F2000044600680D46DDE9089701689846164694
:102F300041F4807101604B4600224FF001112046A0
:102F4000009700F079F948B120680068C00502D503
:102F50004FF4007020640320BDE8F883216805F079
:102F6000FE0008613B464A461549204600F098F9A4
:102F700088B920684169806900903A4649462046F0
:102F800000F0D9F948B1206C042804D12068016808
:102F900041F4007101600120DEE7F5B2B8F1010FE4
:102FA00009D02168300A08613A464946204600F0B7
:102FB000C2F90028E7D1206805610020CCE70000B5
:102FC0000200010038B50C4690F83D20002128256C
:102FD000954302680B4605D051699169009180F8CC
:102FE0003C3038BD556825F480655560E243540790
:102FF00000D50121120601D5828900E0028B80F8FC
:103000003C3092B2FEF777F838BD00002DE9F04170
:1030100090F83D40C26A002320261C4F01686FF4DF
:103020008065082A01D0202A01D1282C04D0212C27
:1030300016D04D61BDE8F081C7624A6822F4E062B3
:103040004A6001684D6101680A6822F480620A6082
:10305000036380F83D6080F83E30FEF78DFAE9E7C3
:10306000C7622122026380F83D6080F83E304A68E2
:1030700022F4E0624A6001684D6101680A6822F446
:1030800080620A60FEF781FBD4E700000000FFFFCA
:10309000F8B590F83D6004460068416821F4E061AD
:1030A00041602068002541690091016841F00101FB
:1030B00001602068016821F4806101602068416836
:1030C000090520D5474F222E48D02A2E46D0616BC5
:1030D000096849686185618D19B1216C41F004016D
:1030E0002164416821F400614160606BFDF7D8FD07
:1030F000012808D0606B4763606BFDF785FD10B158
:10310000606B416B8847608D08B320684169C94393
:10311000490708D40069616A0870606A401C6062EF
:10312000608D401E608520684169C943490608D406
:103130000069616A0870606A401C6062608D401EB0
:103140006085608D18B1206C40F004002064206C14
:1031500000B32046BDE8F840FFF760BBA16B0968EB
:1031600049686185618D19B1216C41F004012164C8
:10317000416821F400614160A06BFDF791FD0128D9
:10318000C1D0A06B4763A06BFDF73EFD0028BAD00D
:10319000A06BB6E72A2E06D12563282084F83D00CF
:1031A0002046FEF7F1FA94F83D10202028290DD092
:1031B000216B222901D0222E07D1256384F83D00FE
:1031C00084F83E502046FEF7DFFAF8BD0649E1627A
:1031D000256384F83D0084F83E502046FEF7CCF984
:1031E000F8BD0000612700080000FFFF70B516461B
:1031F0000D4604460DE02046FFF7BCFB08B1012058
:1032000070BD681C05D0FDF76FFF801BA84207D872
:1032100035B120684069C0434007ECD4002070BD40
:10322000002044F8300F20216173A073216941F020
:10323000200121612073E2E72DE9F0471E46904608
:103240000D460446C1F30747DDF8209008E0701CE6
:1032500006D0FDF749FFA0EB0900B0420FD876B1C8
:103260002068012F18D0806925EA00000004000CB6
:1032700014D000214145EAD00020BDE8F0870020AD
:1032800044F8300F20216173A073216941F02001BF
:10329000216120730120F0E74069E5E70121E9E7BA
:1032A0002DE9F0479A4691460E46044600254FF018
:1032B0002008C1F3074725E020684069C043400566
:1032C00014D42068016841F40071016021686FF432
:1032D00080604861256384F83D8084F83E50206C0E
:1032E00040F00400206484F83C501FE0B9F1FF3F37
:1032F00008D0FDF7F9FEA0EB0A0149450CD8B9F159
:10330000000F09D02068012F13D0806926EA000041
:103310000004000C0BD0CFE744F8305F84F80D8038
:10332000A573206940F02000206125730120BDE8CD
:10333000F0874069EAE770B516460D4604460DE091
:103340002046FFF717FB08B1012070BD681C05D0AF
:10335000FDF7CAFE801BA84207D835B12068406936
:10336000C0430006ECD4002070BD002044F8300FAC
:1033700020216173A073216941F020012161207334
:10338000E2E700003EB500211148009101910F4A8B
:103390000291026081600173017501244FF4602283
:1033A0000461C2614160FDF72BFB08B1FDF733FA00
:1033B00005200094CDE9014069460548FDF72EFA45
:1033C000002801D0FDF727FA3EBD0000002401408F
:1033D000AC000020114808B5416941F0010141618C
:1033E0004069002200F00100009005210B20FEF74B
:1033F00053FA0B20FEF742FA002205210E20FEF7B9
:103400004BFA0E20FEF73AFA002205210F20FEF7B4
:1034100043FABDE808400F20FEF730BA0010024022
:1034200010B50121174A084601F068FD164C154AEF
:10343000012120611032084601F060FD60614FF00B
:10344000FF31206903F07AF90E4A0021903A0F48C3
:1034500001F0E4FD0B4A20606C3A00210C4801F0B9
:10346000DDFD084A6060483A00210A4801F0D6FDB7
:10347000044AA060243A0021074801F0CFFDE06033
:1034800010BD00004C6E00080000002061390008EB
:10349000054C0008695A0008195900082DE9F04345
:1034A00085B0002532480095019502950395816904
:1034B00041F010018161816901F01001049181697D
:1034C00041F020018161816901F02001049181694D
:1034D00041F004018161816901F004010491816975
:1034E00041F0080181618069012200F00800214E4D
:1034F0005403049021463046FDF7F1FD0122DFF828
:103500007890170239464846FDF7E9FD00940124FA
:103510000220CDE90240694601943046FDF7E2FC05
:10352000164E4FF4C040CDE90006DFF854806946DE
:1035300002944046FDF7D6FCE003CDE9000669465B
:1035400002954046FDF7CEFCCDE900740294694631
:1035500048460394FDF7C6FC002209212820FEF707
:103560009BF92820FEF78AF905B0BDE8F08300003A
:10357000001002400010014000080140000011103E
:10358000000C01400D4810B50B4901600C49416029
:1035900000214FF480428160C0E9031241618161E2
:1035A000C1610162FDF724FF002803D0BDE810408F
:1035B000FDF731B910BD000000540040200100208B
:1035C000A08601000D4810B50B4901600C4941600F
:1035D00000214FF480428160C0E9031241618161A2
:1035E000C1610162FDF704FF002803D0BDE810406F
:1035F000FDF711B910BD0000005800407401002013
:10360000A086010010B5104C0E480C2120600F4818
:1036100060600020A060E060C4E90401A061E06196
:103620002046FEF7D1FE08B1FDF7F5F82068C16825
:1036300041F01001C160BDE8104001220449024878
:10364000FEF7A7BF00380140C8010020C0C62D000A
:10365000580300200C4810B50A4901604FF4E131CD
:103660004160002181600C22C160C0E904128161C7
:10367000C161FEF7A9FE002803D0BDE81040FDF7A8
:10368000CAB810BD004400400C020020FEE7FEE76F
:1036900070B5002404F1B000C0B200F03DF9002084
:1036A00000F03AF9102000F037F90025002000F072
:1036B00045F96D1CEDB2802DF8D3641CE4B2082CE2
:1036C000E8D370BD10B54FF4C87001F091F9AE2089
:1036D00000F022F9002000F01FF9102000F01CF982
:1036E000402000F019F9812000F016F9CF2000F0F9
:1036F00013F9A12000F010F9C82000F00DF9A62060
:1037000000F00AF9A82000F007F93F2000F004F9C2
:10371000D32000F001F9002000F0FEF8D52000F0E1
:10372000FBF8802000F0F8F8D92000F0F5F8F1203F
:1037300000F0F2F8DA2000F0EFF8122000F0ECF8D8
:10374000DB2000F0E9F8402000F0E6F8202000F04F
:10375000E3F8022000F0E0F88D2000F0DDF81420FE
:1037600000F0DAF8A42000F0D7F8A62000F0D4F892
:10377000FFF78EFFAF2000F0CFF80C480A494161F7
:103780000B49C1610B4981610B4901620B494162DF
:103790000B4981620B4981600B4901601021017165
:1037A0000021017310BD0000F13700082C03002038
:1037B00079380008E3380008913600084D4D0008BC
:1037C000A14D0008140000202003002010B504467D
:1037D000B031C8B200F0A0F8102040EA141000F098
:1037E0009BF804F00F00BDE8104000F095B8000011
:1037F0002DE9F041203A00240D468046D6B27F28BC
:1038000003D900208D1C8046EDB2102B29460FD025
:10381000FFF7DCFF164906EB460001EB4005285D8B
:1038200000F08CF8641CE4B2062CF8D3BDE8F081FB
:10383000FFF7CCFF0F4F00BF04EB0610385C00F021
:103840007DF8641CE4B2082CF6D36D1CE9B2404646
:10385000FFF7BCFF5FF0000404EB06103844007A69
:1038600000F06CF8641CE4B2082CF5D3DEE700002D
:10387000946E0008BC7000082DE9F05F0026DDF8AA
:1038800028901D4692468B46804634464FEA59079B
:1038900023E0281B401EC1B20A2001F096FABAFBB1
:1038A000F0F00A21B0FBF1F201FB120026B9691E0B
:1038B0008C4201DA38B101263030C2B207FB0480F5
:1038C000C0B24B4604E007FB0480C0B24B46202246
:1038D0005946FFF78DFF641CE4B2AC42D9D3BDE872
:1038E000F09F2DE9F041984617460E460446002504
:1038F0000DE0434631462046FFF77AFF0834E4B234
:10390000782C02D90024B61CF6B26D1CEDB27A5D9B
:10391000002AEED1BDE8F08101B584B001214FF459
:10392000807204A88DE807000B4600227821024827
:10393000FDF728FE05B000BD2001002001B584B0D0
:1039400001214FF4807204A88DE807000B46402245
:1039500078210248FDF716FE05B000BD20010020C9
:10396000F8B5B1231F4A20A125A000F04DFBFFF7B9
:10397000A9FE2A4C10230021A56929A20846A847C0
:1039800001F07CF84FF47A7670B1B623154A16A18F
:1039900027A000F039FB10230021A5692EA20846BC
:1039A000A847304601F024F810230021A5692FA272
:1039B0000846A847304601F01BF8206A80470220DD
:1039C00020732F48406901F0F1FA30B10090C32311
:1039D000044A05A12BA000F017FBBDE8F840002029
:1039E00002F0EAB96C6E00082E2E2F436F72652F1D
:1039F0005372632F6672656572746F732E63000075
:103A0000496E666F2025732C25732C25643A206936
:103A10006E6974206F6C65640D0A00002C03002031
:103A2000646874313120696E69742E2E2E00000096
:103A300044656275672025732C25732C25643A2014
:103A400064687431315F696E697428292066616920
:103A50006C656421210D0A00646874313120696E3F
:103A60006974206661696C65642100007379737400
:103A7000656D20696E697420737563636573730087
:103A8000000000204572726F722025732C25732C64
:103A900025643A20676976652073656D6170686F8B
:103AA0007265206661696C757265215B25645D0DC8
:103AB0000A00000010B5502080F31188BFF34F8F2B
:103AC000BFF36F8F02F09CFF18B104494FF0805094
:103AD0000860002080F3118810BD000004ED00E0B4
:103AE00030B593B028216846FCF791FB14210AA851
:103AF000FCF78DFB002501200F9510951195010411
:103B000012958DE8230004904FF4E010CDE90810E1
:103B1000022407946846FEF779F808B172B6FEE70A
:103B20000AA90F2081E831004FF48060CDE90D052E
:103B300002210AA8FDF758FF08B172B6FEE74FF45C
:103B4000004011900F940FA8FDF7D8FE002801D077
:103B500072B6FEE713B030BD704700000148FEF7B3
:103B600042BA0000D8020020F0B50268164B174C8C
:103B7000174D4FF08047984205D0B84203D0A0427D
:103B800001D0A84203D122F070064A68324398421D
:103B900005D0B84203D0A04201D0A84203D122F4FC
:103BA0004074CA6822434C6922F0800222430260BA
:103BB0008A68C2620A688262984201D10969016317
:103BC00001214161F0BD0000002C014000040040D3
:103BD0000008004010B5406A0021C185C184FEF78D
:103BE000ECFA10BD70B5446A2068406994F83D1045
:103BF000C0F3C0100025212904D118B1E584204666
:103C000000F067F82068406994F83E10C0F3801017
:103C1000222904D118B1E585204600F042F8206C35
:103C200040F0100020642046FEF7C7FA70BD10B5C2
:103C30000146406A0968096889061BD40021C185CC
:103C40000168CA6822F48072CA6001684A6922F079
:103C500001024A6101684A6922F040024A6120215A
:103C600080F83E10016B012904D10168CA6822F076
:103C70001002CA60016B012902D0FEF79FFC10BD43
:103C8000818DFEF76DFA10BD10B5406A016B0129F8
:103C900002D0FEF7DBFC10BD818D4908FEF760FA0B
:103CA00010BD0168CA6822F49072CA6001684A694E
:103CB00022F001024A61016B012904D10168CA683E
:103CC00022F01002CA60202180F83E10002101631A
:103CD00070470168CA6822F0C002CA60202180F8DB
:103CE0003D10704708B590F83E10222901D00220FF
:103CF00008BD82684FF480539A4201D1016921B115
:103D0000816A9A421BD04AB10AE00268816A52680D
:103D1000C2F308020A80816A891C08E0026972B154
:103D20000268526802F07F020A70816A491C81624F
:103D3000C18D491E0904090CC18503D019E0026830
:103D40005268F1E70168CA6822F02002CA6001687F
:103D5000CA6822F48072CA6001684A6922F00102CE
:103D60004A61202180F83E10016B012903D0FEF743
:103D700025FC002008BD002101630168CA6822F00B
:103D80001002CA6001680A68D20602D50A6849684A
:103D90000091818DFEF7E4F9EBE7000070B5044671
:103DA00000680169E26821F4405111430161216911
:103DB000A0680843616908432168CA6841F20C633E
:103DC0009A430243CA6020684169A26921F44071A4
:103DD000114341611E492068884202D1FDF7D0FE9F
:103DE00001E0FDF7BDFE00EBC00101EB00126068D1
:103DF00064218000B2FBF0F3B3FBF1F36FF018061F
:103E00007343B2FBF0F5B2FBF0F605EB830532230A
:103E100003EB0515B5FBF1F5B6FBF1F605F0F00582
:103E200005EB0615B2FBF0F6B2FBF0F0B0FBF1F0DB
:103E30006FF01802504306EB800003EB0010B0FB5C
:103E4000F1F0216800F00F002844886070BD000088
:103E50000038014038B5816282850025134604464A
:103E60000564222084F83E00A26B13489062A26B86
:103E70001248D062A26B12481063A06B0A464563D9
:103E80002168A06B091DFCF7E7FF20680168416805
:103E9000009184F83C50C16841F48071C160206891
:103EA000416941F0010141612068416941F04001EF
:103EB0004161002038BD00002F3C0008893C00080B
:103EC000E53B000881628285C285002101642222CF
:103ED00080F83E2080F83C100168CA6842F4807285
:103EE000CA6001684A6942F001024A610068C1681B
:103EF00041F02001C160002070472DE9F041984653
:103F000017460E460446069D1DE0681C1BD02DB1C9
:103F1000FDF7EAF8A0EB0800A84214D92068C168B0
:103F200021F4D071C1602068416921F00101416133
:103F3000202084F83D0084F83E00002084F83C00F6
:103F40000320BDE8F0812068006836EA000004D054
:103F50000020B842D9D00020F3E70120F9E70000A3
:103F600010B50448FEF72AF9BDE81040014800F0FA
:103F700033B80000C80100200148FEF71FB9000057
:103F80000C02002008B50948FEF7EBF8084869461E
:103F9000006802F09BFA10B906A000F035F8C822BC
:103FA0000C490248FEF7E0FA08BD0000C8010020F5
:103FB0001000002055534152543120676976652026
:103FC00073656D6170686F7265206661696C6564A8
:103FD0000D0A0000580300200849094A82B0096808
:103FE000914209D10A68D243D20605D40A684968C9
:103FF000009102B0FFF7C6BF02B07047C8010020B1
:1040000000380140FEE700000FB4054B10B503A9CE
:10401000044A029800F0EAF810BC5DF814FB0000B6
:10402000E54B0008A80000200907090E002804DB62
:1040300000F1E02080F80014704700F00F0000F15C
:10404000E02080F8141D704702E008C8121F08C164
:10405000002AFAD170477047002001E001C1121F09
:10406000002AFBD1704700002DE9FF5F82B00021DC
:10407000DDE90430020DDDF840B0034318D044F60A
:104080001050A2F2FF3242431514119801281FD09C
:10409000A5EB0B00401C5FEA000A4FF000064E4FF4
:1040A000DFF83891B046504615D5CAF1000413E048
:1040B000119801244AA3012801D16FEA0B0102984B
:1040C000119AC0E90031C0E9024206B0BDE8F09F94
:1040D000CBF10000DFE704460021404A491842EBDB
:1040E0000450CDE9001012E0E00707D032463B460D
:1040F00040464946FCF784F98046894632463B46AD
:1041000010461946FCF77CF906460F466410002C51
:10411000EAD1DDE90401DDE90023BAF1000F06DA96
:10412000FCF76EF942464B46FCF76AF905E0FCF7EE
:10413000D9F942464B46FCF7D5F904460E46002213
:10414000284BFCF757FA03D84FF0FF30014607E041
:104150000022254B20463146FCF7ABF8FCF731FA3C
:10416000102409E0002C0ADB0A220023FCF770F877
:10417000039B30321A55641E50EA0102F2D1641CCE
:10418000039AC4F111031444119A012A03D00122A5
:1041900008430DD10AE0084304D000204FF0110B72
:1041A000119072E7A3EB0B056D1E0DE05B4504DD7E
:1041B0004FF0000205F1010504E003DA4FF00002C0
:1041C000A5F10105002AECD002981199C0E902314D
:1041D000C0E9004579E70000000014400000F03F0E
:1041E000300000000000F0430000E03F2DE9FF4FE9
:1041F00095B09B468946064600250FE2252877D1D3
:1042000000242746F84A0121059400E0044316F8EB
:10421000013F203B01FA03F01042F7D130782A2801
:1042200011D06FF02F033078A0F13002092A16D890
:10423000059A44F0020402EB820203EB42021044AE
:10424000761C0590EFE759F8042B0592002A03DA53
:10425000504244F40054059044F00204761C307837
:104260002E2816D116F8010F44F004042A280DD088
:104270006FF02F023078A0F13003092B09D807EB3B
:10428000870302EB4303C718761CF3E759F8047B56
:10429000761C30786C280FD006DC4C2817D06828A4
:1042A0000DD06A2814D104E0742810D07A280FD1D8
:1042B0000DE044F400140AE044F4801401E044F4F6
:1042C00040147278824202D104F58014761C761C68
:1042D000307866280BD013DC582877D009DC00280A
:1042E00075D04528F6D04628F4D047281AD19DE14C
:1042F00018E0632835D0642879D0652812D195E17B
:10430000702873D008DC6728F1D069286FD06E2838
:104310000DD06F2806D1B5E073282CD0752875D044
:10432000782874D05A46179990476D1C75E1C4F3EC
:104330000250022809D003280DD0D9F80010042813
:104340000DD00D6009F1040967E1D9F80010EA17F2
:10435000C1E90052F6E7D9F800100D80F2E70D70C0
:10436000F0E719F8041B8DF8001000208DF801000B
:10437000EA46012003E059F804AB4FF0FF30610733
:104380004FF0000102D40DE008F101018846B94266
:104390000FDA8045F8DB1AF808100029F4D108E09C
:1043A00008F1010188468142FADB1AF80810002959
:1043B000F6D105985B46A0EB080721463846179AC8
:1043C00000F094FA284400EB080507E04DE029E1ED
:1043D0000DE01AF8010B5A4617999047B8F10108F9
:1043E000F7D25B4621463846179A13E142E00A228B
:1043F0000092C4F302524FF0000A022A08D059F882
:1044000004CB032A4FEAEC710AD00DE029E02AE040
:1044100009F1070121F00702F2E802C1914609E023
:104420000FFA8CFC4FEAEC71042A03D14FFA8CFC92
:104430004FEAEC71002907DA0A460021DCF1000C92
:1044400061EB02012D2202E0220504D52B228DF81A
:104450000420012203E0E20701D02022F7E7904682
:1044600059E00A2102E010220DE010214FF0000A6D
:1044700000910BE010224FF0000A44F004040827DA
:10448000009203E008224FF0000A0092C4F30252A7
:10449000022A05D059F804CB0021032A08D009E0EC
:1044A00009F1070121F00702F2E802C1914605E097
:1044B0001FFA8CFC042A01D10CF0FF0C4FF000080D
:1044C000220728D5702806D0009B83F0100353EAFA
:1044D0000A0305D00EE040228DF80420012208E0F6
:1044E0005CEA010206D030228DF804208DF8050028
:1044F00002229046009B83F0080353EA0A030AD184
:104500005CEA010201D1620705D530228DF8042052
:104510004FF001087F1E582804D034A003900EA845
:1045200002900DE036A0F9E753466046009AFBF78B
:104530008FFE84460398825C0298401E02900270AF
:104540005CEA0100F0D1029806A9081A00F1200ADD
:10455000600702D524F4803400E00127574502DDCE
:10456000A7EB0A0000E0002000EB0A01009005988C
:104570004144401A0590E00306D45B462146179A51
:10458000059800F0B3F90544002706E001A85A4653
:10459000C05D179990476D1C7F1C4745F6DBE00313
:1045A0000CD55B462146179A059800F09FF9054403
:1045B00004E030205A46179990476D1C0099481E18
:1045C00000900029F5DC08E0029802995A4600782C
:1045D000491C0291179990476D1CBAF10001AAF18C
:1045E000010AF1DC65E100000928010030313233B5
:1045F000343536373839616263646566000000001F
:104600003031323334353637383941424344454608
:104610000000000000F058F90544761C30780028AE
:104620007FF4ECAD19B02846BDE8F08F620700D4E6
:10463000062709F1070222F0070CFCE80223E146F5
:1046400003F000485FEA080C02D00FF2702C0DE076
:104650005FEA045C02D50FF2682C07E05FEAC47CD5
:1046600002D00FF2602C01E0AFF2700C4FF0FF3877
:1046700023F00043CDF850C065280CD006DC452857
:1046800009D046281DD047283DD13DE0662818D0E6
:1046900067287ED138E00021112F01DB112000E0D6
:1046A000781CCDE9000106A90EA8FFF7DDFCDDE9C5
:1046B0000F010E9A03910021009207F1010A049163
:1046C0004DE04FF000400097CDE9011006A90EA87B
:1046D000FFF7CAFCDDE90F0203920E9B119900223D
:1046E000DDF80CA00093049211B9791C00EB010ACB
:1046F000B7EB0A0004D4C0F1FF3007F1010A0490BF
:10470000AAEB0700019044E0012F00DA0127002105
:10471000112F01DD112000E03846CDE9000106A986
:104720000EA8FFF7A1FCDDE90F010E9A039100210D
:1047300004910092BA4621070CD40399514500DA3E
:104740008A46BAF1010F05DD009AAAF10101515C18
:10475000302908D0B84202DA10F1040F06DA01213C
:10476000CDE9011015E0AAF10101E9E7002805DC17
:10477000049901440491AAEB000102E0411C514557
:1047800000DD8A460499401A401C01904FF0004019
:104790000290200704D40198504501DBCDF8048035
:1047A00000208DF84F0002980DF14F07B0F1004F37
:1047B00025D02B200E9002984FF0020800280CDA2A
:1047C000404202902D200E9007E00A210298FBF74C
:1047D00029FD3031029007F8011DB8F10001A8F160
:1047E0000108F2DC02980028EFD1791E0E980870BB
:1047F000307800F0200040F0450007F8020D12A8C4
:10480000C01B00F107081498007800B1012000EBEC
:104810000A01019801EBE07105984144401A401EDD
:104820000590E00306D45B462146179A059800F0F0
:104830005DF805441498007818B15A4617999047C6
:104840006D1CE00324D55B462146179A059800F0BD
:104850004DF805441CE00498002807DBDDE903015E
:10486000884203DD0098405C179901E017993020D9
:104870005A469047049805F10105401C04900198A0
:10488000401E019004D12E205A46179990476D1C66
:10489000BAF10001AAF1010ADDDC05E017F8010B0D
:1048A0005A46179990476D1CB8F10001A8F101080C
:1048B000F4DC5B462146179A0598ABE62D00000014
:1048C0002B000000200000002DE9F04104460025E7
:1048D0001E461746880404D405E039462020B04718
:1048E0006D1C641EF9D52846BDE8F0812DE9F04124
:1048F000044600251E469046C80301D5302700E037
:104900002027880404D505E041463846B0476D1C91
:10491000641EF9D52846BDE8F08100000E48016804
:1049200021F080710160016841F0807101600B48E5
:10493000016821F001010160016841F0010101609D
:104940000021416000BF00BF00BF406808B10020E7
:104950007047012070470000FCED00E0001000E00F
:1049600070B5044602F038F801280CD0094D2888AB
:10497000844203D3B4FBF0F001F0F8F92888B4FBCB
:10498000F0F100FB11444FF47A706043BDE87040D1
:1049900000F018B81800002031B5084D6C68FDF71C
:1049A000D9F80749B0FBF1F00099484300906868D6
:1049B0000099001B8842FAD338BD0000001000E0C7
:1049C00040420F0031B5084D6C68FDF7C3F8074948
:1049D000B0FBF1F000994843009068680099001B13
:1049E0008842FAD338BD0000001000E040420F00BA
:1049F00070B5054600244FF47A7603E03046FFF7A1
:104A0000E1FF641CAC42F9D370BD00002DE9F04118
:104A10000546002400F042F84FF002084FF480767B
:104A2000154F04E0641CE4B20120FFF7B5FF3146E6
:104A30003846FCF747FB10B1642CF3D30FE0642C2D
:104A40000DD2002404E0641CE4B20120FFF7A4FFAF
:104A500031463846FCF736FB30B1642C07D385F875
:104A600000800120BDE8F081642CECD3F7E7012041
:104A700028700020F6E700000008014010B500F0A3
:104A800097F804480021017003498160BDE8104097
:104A9000FFF7BCBF20030020514B00081FB54FF4A7
:104AA000807000900020019069460248FCF71AFAD5
:104AB0001FBD0000000801401FB54FF4807000903A
:104AC000012001900320039069460248FCF70AFA8E
:104AD0001FBD00000008014070B500244FF4807530
:104AE000134E04E0641CE4B20120FFF755FF294691
:104AF0003046FCF7E7FA08B1642CF3D3002404E055
:104B0000641CE4B20120FFF747FF29463046FCF75A
:104B1000D9FA08B9642CF3D32820FFF73DFF2946C2
:104B20003046FCF7CFFA002800D0012070BD00000D
:104B30000008014070B5002004464006050EFFF74E
:104B4000CBFF641C2843E4B2082CF6D370BD0000F0
:104B50002DE9FC410D46064600F02AF81348FFF700
:104B600055FF10B10120BDE8FC8100244FEA0D077C
:104B7000FFF7E0FF3855641CE4B2052CF8D39DF82C
:104B800000309DF801209DF802109DF803009C184C
:104B90000F183C449DF80470BC4205D102EB03227F
:104BA0002A8000EB012030800020DCE72003002079
:104BB00070B5FFF781FF0A4D4FF480740022214643
:104BC0002846FCF78CFA1420FFF7E6FE0122214666
:104BD0002846FCF784FABDE870401E20FFF7DCBED3
:104BE0000008014038B504468DF800004FF6FF7309
:104BF000012269460248FDF72BFD204638BD000022
:104C0000C80100201CB51A4FDFF868901A4D1B4EE2
:104C10004FF4005803244FF4FA7A391DBA68B81CCF
:104C20009047002819D0DF23154A16A11BA0FFF7D3
:104C3000EBF941464846FCF74AFA2C73706900F0DC
:104C4000B5F930B10090E7230D4A0EA11DA0FFF782
:104C5000DBF95046FFF784FEDFE7B9887888CDE9B5
:104C60000001DB23064A07A122A0FFF7CDF9E0E708
:104C700020030020001001402C0300200000002031
:104C80007D6E00082E2E2F436F72652F5372632F97
:104C90006672656572746F732E6300004572726F81
:104CA000722025732C25732C25643A2067657420A7
:104CB00064687431312064617461206572726F724E
:104CC0000D0A00004572726F722025732C25732C1B
:104CD00025643A20676976652073656D6170686F39
:104CE0007265206661696C757265215B25645D0D76
:104CF0000A000000496E666F2025732C25732C2551
:104D0000643A2077643A25642C2073643A25640D54
:104D10000A000000FCF742FDFEF7E2FEFEF7BEFBD4
:104D2000FEF758FBFEF76EFCFEF72CFBFEF72AFCA5
:104D3000FEF748FCFEF78EFCFFF7F0FD00F068F888
:104D4000FEF76EFB00F080F8FEE7000070B5044649
:104D5000002110230FA20846FEF7C3FD1E250026E2
:104D60006573A67310230CA231464020FEF7B9FDEF
:104D70005E20E0732674102308A202210020FEF7B3
:104D8000B0FD65740220A0742046BDE8704000F0BC
:104D900007B8000057443A0053443A00475A3A00D3
:104DA00038B50446007900902068A17B032342882F
:104DB000607BFEF761FD207900902068217C032351
:104DC0008288E07BFEF758FD38BD0246012000E0F6
:104DD0005043491EC9B2FBD27047000010B5EFF333
:104DE000058149B9EFF3108131B9084909680229F1
:104DF00005D1EFF3118111B16FF0050403E0002438
:104E000008B100F0B3FF204610BD00008000002074
:104E1000EFF3058058B9EFF3108040B909490868ED
:104E2000022801D030B109E0EFF3118030B16FF00A
:104E30000500704701200860002070474FF0FF30E8
:104E4000704700008000002010B5EFF3058060B9C6
:104E5000EFF3108048B90B490868022802D00128F6
:104E600006D00BE0EFF3118040B16FF0050010BDEC
:104E70000220086001F072F8002010BD4FF0FF30F2
:104E800010BD000080000020F8B50D460024211F51
:104E90004E1C00280ED000BFEFF305824AB9EFF395
:104EA000108232B9134A1268022A17D1EFF3118225
:104EB000A2B10DB10C461BE000216A46009101F041
:104EC000EFFB012813D1009890B10B494FF08050AF
:104ED0000860BFF34F8FBFF36F8F09E0294601F0E1
:104EE0002DFC012804D015B16FF0010400E0344618
:104EF0002046F8BD8000002004ED00E0F8B514461F
:104F000003460E464FF00005EFF30580E8BBEFF3D4
:104F10001080D0BB24480068022802D1EFF3118032
:104F200098BB93B39E423DD84CB1A0680028E0687E
:104F300003D0502836D3012002E008B132E000202F
:104F4000012B05D010B31846A26801F0F6F820E056
:104F500040B103200090002211460120A36801F017
:104F600030F904E003220021012001F006F90500D8
:104F700018D086B100231A46194601F099F9012884
:104F800009D0284600F0A4FE00250BE0184601F0E9
:104F9000B7F8050006D00CB1216800E000212846D2
:104FA00000F082FE2846F8BD8000002038B50024BD
:104FB000E51E002804D000BFEFF3058169B902E0C7
:104FC0006FF0030423E0EFF3108131B91149096850
:104FD000022914D1EFF3118189B1002100916946B2
:104FE00001F074FA012811D1009880B10A494FF0FC
:104FF00080500860BFF34F8FBFF36F8F07E000232F
:105000001A46194601F054F9012800D02C462046D2
:1050100038BD00008000002004ED00E0F0B585B050
:105020004FEA01034FF00004EFF305810394A1BBA5
:10503000EFF3108189BB21490968022902D1EFF3FE
:10504000118151BB48B3802618218DF8104004AD62
:1050500042B3176807B13D4697691FB139467F1EB5
:10506000382F02D21779FF0702D0002005B0F0BD1B
:10507000576907B1BE08D2F808C0BCF1000F0DD0C7
:10508000D4685C2C18D312693AB137B18DE8061098
:105090003246294601F075FC03900DE0D7685FB9F0
:1050A00012694AB903AACDE90012B2B2294601F049
:1050B0003BFC012800D003940398D7E78000002030
:1050C0002DE9F041134C0F46054666692068001D26
:1050D00000F0F0FC681C07D137B12168BDE8F04151
:1050E0000D48091D00F036BD20683544B5424560C5
:1050F000216805D2A068BDE8F041091D00F012BD8D
:105100006068091D00F00EFD206B854200D225630A
:10511000BDE8F08130000020D80900202DE9F041E1
:10512000054600F023FD2D4C2069401C20612068BD
:105130002B4F10B1E06930B32BE0256020690128C6
:1051400027D1002606EB860007EB800000F0DCFC90
:10515000761C382EF6D3234800F0D6FC21481430B4
:1051600000F0D2FC1F48283000F0CEFC1D483C3037
:1051700000F0CAFC1B48503000F0C6FC19486060C3
:105180001430A06005E02068E96AC06A884200D84F
:105190002560E06A401CE0626864E86AA1698842B0
:1051A00000D9A06100EB800007EB8000291D00F012
:1051B000D1FC00F0FBFCE06900280CD02068E96A13
:1051C000C06A884207D208494FF080500860BFF398
:1051D0004F8FBFF36F8FBDE8F081000030000020DB
:1051E000280500208809002004ED00E038B500F013
:1051F000BDFC104CA068C8B90F4800F085FC0E48F3
:10520000143000F081FC0C482060143060600A4BC0
:1052100000202833009003F1500210210A2000F0F2
:10522000D0FFA06010B105A100F03EFDBDE8384000
:1052300000F0BCBC6C000020EC090020546D7251E1
:105240000000000030B4026C0B46002A0BD0C1688D
:105250001144C1604468A14201D30168C16030BCFF
:105260001846FAF7BBBF30BC70472DE9F041856B9B
:10527000174604460026026C82B1C7B1E068FAF70F
:10528000ADFFE168206C091AE1602268914202D208
:105290006168081AE060022F16D017E02068A8B9EC
:1052A000606801F011FC0646002060600EE0A06816
:1052B000FAF794FF216CA0680844A06061688842F6
:1052C00004D32068A06001E005B16D1E6D1CA563CC
:1052D0003046BDE8F08110B5044690F8590058B149
:1052E00001280CD002280FD0502080F31188BFF382
:1052F0004F8FBFF36F8FFEE7206B00F06BFC2046F3
:10530000BDE8104000F066BC10BD000010484FF42E
:105310002051420706D0C01D0D4920F00700411A58
:10532000C1F520510B4A00230144C2E900030839AA
:10533000103A21F0070111604B600B600B1AC0E9B5
:10534000001393604FF000405360D060704700003E
:10535000BC11002094000020144E154CA6F29C476E
:105360004FF08058DFF84C9012E000BF00F0FEFBD9
:10537000F068C568281D00F09DFB2069401E206173
:10538000E068401EE06000F011FC2846FFF7A3FF34
:10539000E0680028EAD138680128F9D9C9F8008006
:1053A000BFF34F8FBFF36F8FF2E70000C4090020F7
:1053B0003000002004ED00E070B51D46049C51B1A2
:1053C000C4F80020C4E90F010121204600F02CFFA1
:1053D00084F84C5070BD2460F4E72DE9F0470E4688
:1053E000DDE909841746824691009946089DA52269
:1053F000206BFAF705FF6FF00301206B01EB8701CB
:10540000084420F00707780707D0502080F3118860
:10541000BFF34F8FBFF36F8FFEE72218315C82F826
:105420003410315C11B1401C1028F6D3002684F8EA
:105430004360382D00D33725E562C4E91356201D9B
:1054400000F06DFB04F1180000F069FB2461C5F168
:1054500038006462A061666584F858604A46514627
:10546000384600F047FA2060B8F1000F01D0C8F8C4
:105470000040BDE8F087000030B5114900E011465A
:105480000A688242FBD34B685C18844203D14068AF
:1054900018444860084643681C18944209D1084CD7
:1054A000103C2468A24209D052681A4442600A683B
:1054B00012680260814200D0086030BD0460F9E7E4
:1054C0009400002070B5002441600B4D00619142B2
:1054D00006D8D11A8269914206D2011D686807E098
:1054E0009A4203D2994201D3012403E0011D2868A6
:1054F00000F018FB204670BD6C00002010B504467B
:1055000000F034FBA06B28B15FF0000400F04EFB0C
:10551000204610BD0124F9E730B589B0304D55E083
:105520000498002806DADDE90601059A90470498F8
:1055300000284BDB069C606910B1201D00F0BAFA10
:1055400002A800F0B9F8024604980A283ED2DFE823
:1055500000F00505053D263705053D260598A1699E
:10556000034601442046FFF7ADFF00B3616A2046C1
:105570008847E069012829D1002000900598A16999
:10558000002342181946204601F0E4FB78B9502068
:1055900080F31188BFF34F8FBFF36F8FFEE705983D
:1055A000A06128B1811813462046FFF78BFF0DE05C
:1055B000502080F31188BFF34F8FBFF36F8FFEE74A
:1055C00094F82C0010B9204600F004FB002204A936
:1055D000A86800F0C9FF0028A2D109B030BD0000C2
:1055E0006C0000202DE9FC410F46054600F0FAFC56
:1055F00001A800F061F80446019818B101F018FB09
:10560000BDE8FC81224EAFB170680068A8B30027E6
:10561000291B3A46B06800F087FB01F009FB00281F
:10562000EED11C494FF080500860BFF34F8FBFF39D
:105630006F8FE5E7A542EBD801F0FAFA306827460C
:10564000C068C468201D00F035FAE069012810D157
:10565000A0692B4641193A462046FFF733FF40B177
:1056600000200346014600902A46204601F072FBC6
:1056700020B1616A20468847C2E707E0502080F3E6
:105680001188BFF34F8FBFF36F8FFEE70127BFE78E
:105690006C00002004ED00E006484168096829B16B
:1056A0004168C968C9684968016370474FF0FF31B4
:1056B000FAE700003000002070B5054601F09AF9C5
:1056C000064E04463069844203D200F009F80120F6
:1056D00000E0002028602046346170BD6C0000208E
:1056E000F8B5194D1FE0C068C4680668201D00F0B9
:1056F000E1F9616A20468847E069012813D1A06971
:105700003044B04206D924616060211D286800F051
:1057100009FA08E000200346014600903246204680
:1057200001F018FB38B1286801680029DBD16968ED
:10573000C5E90010F8BD502080F31188BFF34F8FEA
:10574000BFF36F8FFEE700006C0000200848406840
:10575000401C4FF0500080F3118804D0BFF34F8FEE
:10576000BFF36F8FFEE7BFF34F8FBFF36F8FFEE77F
:105770009C000020074C2068016841B1C0680021EE
:10578000D0F80000FFF72EFFFFF7C6FEF3E7012178
:105790000020F7E76C0000202DE9F041044600F0FE
:1057A000E5F994F9455004F1240609E0606A48B12E
:1057B000304601F005FA08B100F04EFB6D1E6DB2E7
:1057C000002DF3DC4FF0FF3684F8456000F0EEF971
:1057D00000F0CCF994F9445004F1100709E0206975
:1057E00048B1384601F0ECF908B100F035FB6D1E08
:1057F0006DB2002DF3DC84F84460BDE8F04100F0A8
:10580000D5B900002DE9F0410546002700F0EAFB7C
:10581000314E306808B9FFF779FDF06805424BD189
:10582000C5B3083568070ED005F00700C0F10800C1
:105830000544680707D0502080F31188BFF34F8FCD
:10584000BFF36F8FFEE72DB37068854234D82248CE
:10585000103001460C6801E020460C466168A94200
:1058600002D221680029F7D131688C4224D0076820
:105870002168016060680837411B10290FD9601941
:10588000420708D0502080F31188BFF34F8FBFF339
:105890006F8FFEE710E041606560FFF7EDFD616826
:1058A0007068401A7060B268904200D2B060F068D0
:1058B00001430020C4E9000101F0BAF9780707D0DC
:1058C000502080F31188BFF34F8FBFF36F8FFEE737
:1058D0003846BDE8F08100008400002004490868D3
:1058E00018B10868026D521C026508687047000014
:1058F0003000002010B5031F4FF080741C601B1F88
:1059000021F001011960191F024B0B601439403856
:105910000A6010BD4D57000808B5224D224C4FF0CB
:10592000FF37002640F2371839466869FFF7ACFAAE
:1059300038B100904FF48C731C4A1DA122A0FEF7D1
:1059400063FB206A20B9616A11B9A16A002923D0DA
:10595000217BB1B101290CD002290CD003290DD033
:10596000124A4FF4977312A123A000BFFEF74CFB1D
:1059700007E0804705E08047616A00E0A16A0A48C5
:10598000884726734346094A09A125A0FEF73CFB38
:105990000120FFF723FAC7E74FF49A73034A04A1E3
:1059A00027A0E3E7000000202C030020866E0008FB
:1059B0002E2E2F436F72652F5372632F66726565AB
:1059C00072746F732E6300004572726F72202573BC
:1059D0002C25732C25643A206765742073656D61EE
:1059E00070686F7265206661696C757265215B25F0
:1059F000645D0D0A000000004572726F722025730D
:105A00002C25732C25643A20756E6B6E6F776E2093
:105A1000736372726E207479706521210D0A000023
:105A2000496E666F2025732C25732C25643A206FF0
:105A30006C656420726566726573680D0A0000000B
:105A40004572726F722025732C25732C25643A20C1
:105A50006F6C65645F5858582829206973206E75EB
:105A60006C6C21210D0A000000250A4E0A4C6F1EA5
:105A70003946306900F062FE2278084908A0FEF736
:105A8000C3FAC8210548FAF7C2FB25800120FEF7BA
:105A900067FFEDE7000000201C00002058030020F5
:105AA000646174613A2573206C656E3A25640D0A51
:105AB00000000000D0E9013201699A60D0E90123B9
:105AC0005A604A68824201D182684A6000220261BB
:105AD0000868401E0860086870470000034B0360B8
